:020000040000fa
:080000000002040000000000f2
:020000040000fa
:04000800aa03000047
:020000040000fa
:04000c00aa03000043
:020000040000fa
:04001000aa0300003f
:020000040000fa
:04001400aa0300003b
:020000040000fa
:04001800aa03000037
:020000040000fa
:04001c00aa03000033
:020000040000fa
:04002000aa0300002f
:020000040000fa
:04002400aa0300002b
:020000040000fa
:04002800aa03000027
:020000040000fa
:04002c00aa03000023
:020000040000fa
:04003000aa0300001f
:020000040000fa
:0400340002030000c3
:020000040000fa
:04003800aa03000017
:020000040000fa
:04003c00aa03000013
:020000040000fa
:04004000aa0300000f
:020000040000fa
:04004400aa0300000b
:020000040000fa
:040048002c03000085
:020000040000fa
:04004c00aa03000003
:020000040000fa
:04005000aa030000ff
:020000040000fa
:04005400aa030000fb
:020000040000fa
:04005800aa030000f7
:020000040000fa
:04005c008603000017
:020000040000fa
:04006000aa030000ef
:020000040000fa
:04006400aa030000eb
:020000040000fa
:04006800aa030000e7
:020000040000fa
:04006c00aa030000e3
:020000040000fa
:04007000aa030000df
:020000040000fa
:04007400aa030000db
:020000040000fa
:04007800aa030000d7
:020000040000fa
:04007c00aa030000d3
:020000040000fa
:04008000aa030000cf
:020000040000fa
:04008400aa030000cb
:020000040000fa
:04008800aa030000c7
:020000040000fa
:04008c00aa030000c3
:020000040000fa
:04009000aa030000bf
:020000040000fa
:040094004c03000019
:020000040000fa
:04009800aa030000b7
:020000040000fa
:04009c00aa030000b3
:020000040000fa
:0400a000aa030000af
:020000040000fa
:0400a400aa030000ab
:020000040000fa
:0400a800aa030000a7
:020000040000fa
:0400ac00aa030000a3
:020000040000fa
:0400b000aa0300009f
:020000040000fa
:0400b400aa0300009b
:020000040000fa
:0400b800aa03000097
:020000040000fa
:0400bc00aa03000093
:020000040000fa
:0400c000aa0300008f
:020000040000fa
:0400c400aa0300008b
:020000040000fa
:0400c800aa03000087
:020000040000fa
:0400cc00aa03000083
:020000040000fa
:0400d000aa0300007f
:020000040000fa
:0400d400aa0300007b
:020000040000fa
:0400d800aa03000077
:020000040000fa
:0400dc00aa03000073
:020000040000fa
:0400e000aa0300006f
:020000040000fa
:0400e400aa0300006b
:020000040000fa
:0400e800aa03000067
:020000040000fa
:0400ec00aa03000063
:020000040000fa
:0400f000aa0300005f
:020000040000fa
:0400f400aa0300005b
:020000040000fa
:0400f800aa03000057
:020000040000fa
:0400fc00aa03000053
:020000040000fa
:04010000aa0300004e
:020000040000fa
:04010400aa0300004a
:020000040000fa
:04010800aa03000046
:020000040000fa
:04010c00aa03000042
:020000040000fa
:04011000aa0300003e
:020000040000fa
:04011400aa0300003a
:020000040000fa
:04011800aa03000036
:020000040000fa
:04011c00aa03000032
:020000040000fa
:04012000aa0300002e
:020000040000fa
:04012400aa0300002a
:020000040000fa
:04012800aa03000026
:020000040000fa
:04012c00aa03000022
:020000040000fa
:04013000aa0300001e
:020000040000fa
:04013400aa0300001a
:020000040000fa
:04013800aa03000016
:020000040000fa
:04013c00aa03000012
:020000040000fa
:04014000aa0300000e
:020000040000fa
:04014400aa0300000a
:020000040000fa
:04014800aa03000006
:020000040000fa
:04014c00aa03000002
:020000040000fa
:04015000aa030000fe
:020000040000fa
:04015400aa030000fa
:020000040000fa
:04015800aa030000f6
:020000040000fa
:04015c00aa030000f2
:020000040000fa
:04016000aa030000ee
:020000040000fa
:04016400aa030000ea
:020000040000fa
:04016800aa030000e6
:020000040000fa
:04016c00aa030000e2
:020000040000fa
:04017000aa030000de
:020000040000fa
:04017400aa030000da
:020000040000fa
:04017800aa030000d6
:020000040000fa
:04017c00aa030000d2
:020000040000fa
:04018000aa030000ce
:020000040000fa
:04018400aa030000ca
:020000040000fa
:04018800aa030000c6
:020000040000fa
:04018c00aa030000c2
:020000040000fa
:04019000aa030000be
:020000040000fa
:04019400aa030000ba
:020000040000fa
:04019800aa030000b6
:020000040000fa
:04019c00aa030000b2
:020000040000fa
:0401a000aa030000ae
:020000040000fa
:0401a400aa030000aa
:020000040000fa
:0401a800aa030000a6
:020000040000fa
:0401ac00aa030000a2
:020000040000fa
:0401b000aa0300009e
:020000040000fa
:0401b400aa0300009a
:020000040000fa
:0401b800aa03000096
:020000040000fa
:0401bc00aa03000092
:020000040000fa
:0401c000aa0300008e
:020000040000fa
:0401c400aa0300008a
:020000040000fa
:0401c800aa03000086
:020000040000fa
:0401cc00aa03000082
:020000040000fa
:0401d000aa0300007e
:020000040000fa
:0401d400aa0300007a
:020000040000fa
:0401d800aa03000076
:020000040000fa
:0401dc00aa03000072
:020000040000fa
:0401e000aa0300006e
:020000040000fa
:0401e400aa0300006a
:020000040000fa
:0401e800aa03000066
:020000040000fa
:0401ec00aa03000062
:020000040000fa
:0401f000aa0300005e
:020000040000fa
:0401f400aa0300005a
:020000040000fa
:0401f800aa03000056
:020000040000fa
:0401fc00aa03000052
:020000040000fa
:04020000aa0300004d
:020000040000fa
:04020400aa03000049
:020000040000fa
:04020800aa03000045
:020000040000fa
:04020c00aa03000041
:020000040000fa
:04021000aa0300003d
:020000040000fa
:04021400aa03000039
:020000040000fa
:04021800aa03000035
:020000040000fa
:04021c00aa03000031
:020000040000fa
:04022000aa0300002d
:020000040000fa
:04022400aa03000029
:020000040000fa
:04022800aa03000025
:020000040000fa
:04022c00aa03000021
:020000040000fa
:04023000aa0300001d
:020000040000fa
:04023400aa03000019
:020000040000fa
:04023800aa03000015
:020000040000fa
:04023c00aa03000011
:020000040000fa
:04024000aa0300000d
:020000040000fa
:04024400aa03000009
:020000040000fa
:04024800aa03000005
:020000040000fa
:04024c00aa03000001
:020000040000fa
:04025000aa030000fd
:020000040000fa
:04025400aa030000f9
:020000040000fa
:04025800aa030000f5
:020000040000fa
:04025c00aa030000f1
:020000040000fa
:04026000aa030000ed
:020000040000fa
:04026400aa030000e9
:020000040000fa
:100400008f0521000eff27000e018800000000006c
:10041000000020000000e000020032000001200087
:100420002002880014000700cc0007000000e00054
:1004300003003a00e0c32100010020000200370061
:100440000000200001002000810f70000100320038
:100450000f000700000020000000e0000200320052
:100460000000020000000000400c0200000000003c
:100470000040da000000fe00400020000000e00024
:1004800002003200002020009001880000000600d9
:10049000a1028800800478000000eb001f003700f4
:1004a000e284440054a0b4009905ba00e2844400f8
:1004b00054a0b4009906ba00e284440054a0b400e9
:1004c0000006eb00476fde00fd07b200ae018800ba
:1004d000636ce10003003a000ad801000000eb0061
:1004e0000e003700606ce10008003a00004deb00a0
:1004f0000a05e800020039003420ec000af0a000f0
:100500008b05e900f9ff3e00040037006168e10057
:10051000010032000086eb000b00070019c7ba008b
:100520000e04e0001905ba0003003a000a00e000da
:10053000dbff3a0000000600fe07b200ae028800b2
:100540008a047800f5ff37000cd0a300e20f4d00bd
:100550001c003b0089027800354dba000a05e8000e
:10056000020039003420ec000af0a0008b05e900fd
:100570000f003200254dba000a05e80002003900dc
:100580003420ec000af0a0008b05e90008003200de
:100590000c00e0000600320015cdba000a05e800a4
:1005a000020039003420ec000af0a0008b05e900bd
:1005b0008984e80054a0b4000b00e000e2ff3a0098
:1005c000000006009902ba00055d78008b05e9007d
:1005d000f7ff3200c82ade00055d78008b05e900d0
:1005e000f3ff32000c00e000f1ff320019ddba0029
:1005f000eeff37007a12040000000000221404000d
:1006000000000000809fbe000000fa000068a90002
:1006100021708000002020000080600000f0a70012
:100620000000ea000000e9004f00de000040780012
:100630000080fb00610060004900dd002170800047
:100640000190a10001007000207088000080fa0075
:100650004f00be0000400600809fbe000000fa0070
:100660000108a900a07480000080ea004f00de00ad
:10067000004078000080fb004f00dd00a174800086
:1006800001f0a10001007000a07488000080fa0051
:100690004f00be00004006003600f800809fbe00fc
:1006a000829fbe00849fbe00869fbe000000fa00ad
:1006b0000368a900c0808000d180800061004000f4
:1006c000e0804800c0808800d1808800a080800041
:1006d000b180800061004000e0804800a080880078
:1006e000b18088002b0c0700fb05070021090700db
:1006f0000080fa004f03be004f02be004f01be0053
:100700004f00be003600f90000400600801f780050
:100710000000fa0001a8a90000188000708288007b
:100720001018800080828800201880009082880045
:1007300030188000a082880040188000b0828800b5
:1007400010c0b30025f0b7000080fa004f00780019
:10075000004006000040da000000fe000000050036
:1007600014002000ad033700f4ff2f00ab03370067
:100770000001be003f0007000470a70003f0a100c5
:100780006509b100160032000d0035006828e1004f
:1007900006003500f0ff2f00f1ff27000300e00006
:1007a00013003b000100280000000500000040008d
:1007b000818048008502e900fcff3a00080037000c
:1007c000f88f420002003c008000eb0000000500b2
:1007d0008100d1000080d3008502e800fcff3a00d0
:1007e0000300e00002003b0060001000e080180001
:1007f000000006000001be001e0007000470a700f4
:1008000003f0a10003f8a30013003a006509b1004a
:1008100010003200090035006928e10002003500af
:100820000100280000000500000040008180480011
:100830008502e900fcff3a0000000600f88f420044
:10084000050035008100d1000080d3008502e8005a
:10085000fcff3a00000006008000eb0000000500ed
:100860004f89de0082017800870337006011b800ed
:1008700095033700c70ade00f107b200f50fb2009a
:1008800008003200e1cf4200020032000170a000f7
:1008900024000500810f70000100320004080500eb
:1008a00044000500810f700002003a0014000500aa
:1008b0008502e9000000400081c04800fcff3b00c9
:1008c0000170a0002400050007f8270007836100dd
:1008d0000638e10004003a00f70720008783610032
:1008e0008703710001003a0003f0a200889fbe0058
:1008f0008a9fbe008c9fbe00470ade000480a100d4
:10090000c71ade000580a1000700280007856000e7
:1009100087856100f70f20000720e1009e0032006c
:100920000728e1009c003200010678000400e00086
:10093000b4003200f7072000878060000170a0003b
:100940000500e000c0003200f70720008781610049
:100950000370a000050652000f003a000b50e100a2
:100960000b0032000308e10002003a000200e1003f
:100970007e003200020450008384580004003100dd
:100980000001fd008101fd008402fd008a05fd00db
:100990006044b800210037000520e10005003d005b
:1009a0000001fd008101fd008402fd008a05fd00bb
:1009b000050652007a60e100050035000170a100d3
:1009c0004722dd00848070008a8070006300370059
:1009d0006044b800ef02660007ff2f0007066600bc
:1009e0000500e00006003400f08312008714dd00eb
:1009f0000511de00071bdd00060171008519de0010
:100a00007060e10005003500090478008204780078
:100a1000030178008001eb00700656000b50e100e6
:100a200003003a00020040008380480004003700c1
:100a300060041400e0841c00020058008380580009
:100a40000188a300060032008100d1000080d3009d
:100a50008984d3000884d3000402e800270037000b
:100a60000178a30025003a000100e00003003200f5
:100a70008186cf00698656000a0037008c0020006e
:100a80000000e00004003a000900780088047800c3
:100a90000004eb00700252008086cf000d06460075
:100aa0000c06e9007060e100060035008000780067
:100ab00009007800880478000004eb0070065600f6
:100ac000700252000c00e0000c0034008c08dd00c5
:100ad000f00316000703de00868070000c00dd00c6
:100ae000074bde00060070008c4cdd000743de0083
:100af000868474000c44dd000c0252006120e10089
:100b00002000350061016000070028008781640033
:100b1000f7ff270087836400070374000300e000e9
:100b20000600320082037300040032000000e80077
:100b3000e08048000188a3000e003a00f70f200073
:100b40000720e1004a003d000170a1004722dd00be
:100b5000810072008a8070000000be004f06be0057
:100b60004f05be004f04be00000006006000b80044
:100b7000faff37008100d1000080d3000402e800b2
:100b8000eeff37000401780089017400a10107001d
:100b90008a807000f1ff3700f70107000702780034
:100ba0000001fd008101fd00f301070087027800cc
:100bb000850372000778a300040032000001fd00e5
:100bc0008101fd0006020700e4ff37008503620093
:100bd0000768a300080032000b50e1000300320058
:100be000f0ff2f00f1ff2700dcff37000001fd00c0
:100bf0008101fd00d9ff37000468a300d7ff320050
:100c0000faff3700f8ff2700888360000b003a00e6
:100c10000000e00009003a0083036400828373004f
:100c2000020032000200be00ccff37000b50e10092
:100c3000ceff3a000200be00c8ff370014002000bb
:100c4000810064003eff3700f8ff270088836100c1
:100c500004003a000200e00002003a008c00780034
:100c6000beff3700150020008301640039ff370004
:100c700001f827000000200081007500b7ff370051
:100c8000889fbe008a9fbe008c9fbe001b00200074
:100c90000202be00058668000600280006066600ff
:100ca0004709de00f20fb200820032000243e80082
:100cb00080003200c729de00f30fb2007d00320051
:100cc0000343e8007b003200f107b2000170a0008e
:100cd000f507b2000570a000c708dd004903de007b
:100ce000868070004700dd00c72add004923de0052
:100cf000868272004722dd00030551000403500084
:100d000085835800030031000000400081804800c6
:100d10000a05e9008c1f78008a9fbe00040050007d
:100d2000858058000402420085824a00000040008d
:100d3000818048000005eb000004be006033b8006d
:100d40000406be000d48e100560031001100090004
:100d50004dccd8000c01b8000d02b80084814100d0
:100d600060824a008283530003045c0084845c0038
:100d700060055d000a00e00025003a00800578006b
:100d80000d40e1004900310088007800070078003c
:100d9000110009004d88d8000c01b8000d02b80000
:100da0008481410060824a006003110083835b00fc
:100db00004045c00e0845c000900e00021003a00cb
:100dc0004f01be000300e0002b003200e301600091
:100dd000070673008c81710001003200640070000e
:100de0004200de004e5edd000c007000c258de00e6
:100df00001e0a00083010700cf017800818071002d
:100e00004f06be004f05be004f04be0000000600a6
:100e10008c8343000d044c00e0844c0060054d00c1
:100e20000000e9000a00e000d4ff32008c83430098
:100e30000d044c00e0844c0060054d000000e9000a
:100e4000ceff37000c0343008d834b0060044c0041
:100e5000e0844c000000e9000900e000d8ff320007
:100e60000c0343008d834b0060044c00e0844c0075
:100e70000000e900d2ff37004200de004e5edd00d8
:100e80000c007000c258de0001e0a000cf01780025
:100e90000300e000daff320060001000e08018007c
:100ea000d7ff3700f0ff2f00aaff3700f0ff2f0019
:100eb000b9ff37000404be002f0107008706780041
:100ec0000004fd008104fd002b010700078366007c
:100ed0000678a300030032000960a7000800be00e6
:100ee0002c0037000d78a300020032000800be007d
:100ef000280037000778a30026003a0001f0a1007f
:100f000009f0a1000668a30003003200f1ff2700ea
:100f1000f0ff2f00baff37000d68a3000300320076
:100f20000800be008c807000b5ff37000768a30082
:100f300007003a000648a30003003200f1ff270033
:100f4000f0ff2f00aeff37000d48a3000300320072
:100f50006000b8008c807000a9ff37000748a3002c
:100f60000400320001f82700000020008c8070008f
:100f7000a3ff3700760107000004fd008104fd0097
:100f800002057800720107000802be008a0178009d
:100f900059ff37000160a000120220003281880052
:100fa00097ff37000100e000120032000500e0006a
:100fb00010003200889fbe008a9fbe008c9fbe003a
:100fc0000006eb0001f8a3000300320060001000ef
:100fd000e08018000cf0a00005f8a3000300320028
:100fe00060021200e0821a000cf0a2008005eb0003
:100ff00041ff37006000b80002000500038368006d
:101000000700280007036300470ade000480a100f0
:10101000c71ade000580a100f70f20000720e100bd
:10102000420032000728e10040003200889fbe00e5
:101030008a9fbe008c1f7800f107b200f307b20050
:101040000400e000640032000170a0000500e00030
:10105000680032000370a00085054200eb07b10074
:101060000204b8000302b8008484440060854a008a
:10107000020ab800848444000a854a00030ab800c2
:1010800004054500040033000804d0008984d20020
:101090000a85d2008b05e9006158e1003d0035006a
:1010a000021020000901610003082000898161000d
:1010b000f70720008783640008867300c84cde00b1
:1010c000c853dd00878474004855de000300e0004b
:1010d0000600320082037600040032008904e80032
:1010e00060054d000a88a3000c003a00f70f2000ad
:1010f0000758e10044003d000a70a100c75ddd0013
:101100000a8575008a007300090078004f06780090
:101110004f05be004f04be00000006000a05d100c6
:101120008984d3008b05e800f0ff3700881f780022
:101130000604780090000700070278000001fd0017
:101140008101fd008c000700870278008503720092
:101150000778a300050032000001fd008101fd00b9
:101160009f0007004f04780000000600850372000e
:101170000748a30003003200f0ff2f00f1ff270013
:10118000f8ff37000000200001f827008880700079
:10119000f4ff3700880178004848dd008081710045
:1011a0004848de00c850dd0001007000c850de0075
:1011b000060478000b017800160007008880700094
:1011c000d2ff37000500e0000500320017002000c4
:1011d0003a0007009dff370081037000f9ff3a00d5
:1011e000860078004f0678004f05be004f04be0011
:1011f0000000050083037100f9ff32002700200082
:101200002e00070094ff370001f827008680700049
:10121000f4ff37000100e0002600320061011100f8
:101220007810e10023003c006022b8007010e1005b
:101230000400350080027800010078008000eb0097
:10124000700151000200e000090034007003110039
:10125000062add00822ade008603dd008782720016
:101260000200de00860bdd00070070008208de0051
:1012700084817100f4ff2700048262008481710080
:1012800004002800848262006102600005f0a6006c
:101290000000060004827100070032000000e80030
:1012a000e0804800000006000002be006000b800b8
:1012b000efff37006000b80000000600889fbe0006
:1012c0000004eb006138e10016003a000100e00084
:1012d00008003a00c800de004800dd008800200059
:1012e0000100e00003003a00c800de004800dd0015
:1012f000680444008184cf00e9845400060034006f
:101300008908dd00f08314008703de008780700009
:101310000900dd0009044400610214004f04be000e
:10132000000006000300e00008003a00c811de00db
:101330004811dd00880020000300e00003003a00af
:10134000c811de004811dd00680444008384cf002a
:10135000e9845400060034008919dd00f08314008c
:101360008713de00878171000911dd000904440044
:10137000e1021400e9ff37002700200001f0a70078
:1013800017002000470bde00f60fb2000400320009
:101390000643e8000a0032004702b30000000600de
:1013a00001037800f607b2000603700002003a005d
:1013b0000703b300000006008702b3000000060028
:1013c00001037800f607b200060370000200320045
:1013d0000770a000000006000760a00000000600e3
:1013e0000478a300040032000578a3000300320053
:1013f0000168a30001003a000200be000160a000e5
:101400000000060081017000270032008002eb001e
:1014100001f8a3000300320060001000e080180013
:1014200015002000f40720000202420020003400d2
:10143000f703200087036000060420000003630018
:1014400002082000000161004700de00c909dd003c
:1014500000807100c708de000600e00008003200ce
:1014600087037100060032001000b0000180b00058
:101470000188a30002003200c108de000402e80077
:10148000f107b200f30f20000320e10003003d004c
:101490004722dd00810072002900370001f8270093
:1014a0000000eb00260037006000b80000000600d6
:1014b000680212007f20e100020034006000b800e2
:1014c0001f0037006011b8007020e10004003500f3
:1014d00080017800010078008000eb00700252006b
:1014e0000400e00009003400f00312000719dd00d9
:1014f0008419de000703dd00868171000400de0030
:10150000070bdd00060070008408de00f7ff2700ef
:1015100083836300870371000600280003036300d0
:10152000070032000700e00003003a00610160009c
:1015300002817300020032001000b0000180b00090
:101540000500a6000000060001f0a0000000060053
:101550004f0ade004709de00f107b200f20fb200c9
:101560000b003200f207b1000170a000c708dd00d7
:10157000c901de00838070004700dd000400a60082
:101580000000060060001000e08018000000060067
:10159000810f700001003a00000006008182cf0038
:1015a0000500e00010003e008082cf00ee82420085
:1015b0007028e1000400390007003e008000780038
:1015c0000000eb000e003700708312008600de0082
:1015d0000500dd000a003700708352008600dd0040
:1015e0000000eb0006003700e28252008508dd00b3
:1015f000708312000603de00868070000500dd00a7
:101600007507b0000501ea000400a600000006000e
:1016100060001000e080180000000600889fbe00f7
:101620008a9fbe00841f78007c0007004f0078006e
:1016300011003300f0ff2f00838f6c0006003b0089
:10164000040565000a00a7000800370009f0a6009d
:101650001000200008003700820f5400838f5c00c8
:10166000030039001000200001003e0000002000af
:1016700009f0a7000000ea004f05be004f04be00bd
:101680000000e00000000600881f780003047800d6
:101690000300e00007003d0060001000e08018003b
:1016a00060011900e081190002003b0001f02d00eb
:1016b000030037000400070008f0a70001f0a000b5
:1016c0004f04780000000600889fbe008a9fbe007d
:1016d0000082700004027100048271002600320052
:1016e0000004be000200be006011b8006b092000bb
:1016f000950220000182cf000a0039000541b100a7
:101700000082cf00070039000541b1000982cf00f7
:10171000040039000541b1000882cf000100390002
:101720000541b10005425200120032000a003b00a0
:1017300082817100610164008100d1000080d300ca
:101740008984d3000884d3008b05e8000442e800b4
:10175000f7ff3a00070037000804440089844c0072
:1017600000004800818048008b05e9000442e90040
:10177000f9ff3a00030007004f05be004f04be000a
:101780000000060081002000618055000b003d0034
:101790000b00200061fe2f000100e1001d0034005d
:1017a00082817100610164008904d1000884d30042
:1017b0000000e800faff3a007100200061006400b8
:1017c0000300700002006000090032006104440060
:1017d000e0844c000988a500050032008b05e80074
:1017e0006808e10002003a008904d1000884d300af
:1017f000f20f20000258e10005003d00c75ddd004a
:10180000f907b20089807500080078000000060022
:101810000bf827008b007800000005000004be00d4
:1018200014fc07000003be000405be000200be0059
:0c18300010fc0700844f7500000006004b
:020000040000fa
:08183c0000530000070000004a
:020000040000fa
:101844000000fa000041eb006000b80099050700b1
:1018540012c0b3006000b8009605070084cea8004b
:1018640084aea800848ea800856ea800754ea800da
:10187400854ea9000080fa00000006000a00fa0064
:10188400889fbe008a1f78003d070700d007070025
:101894009d050700a705070033060700200407007d
:1018a40082070700a02721006080880084cea90059
:1018b40084aea900848ea900856ea900754ea90086
:1018c400040ea800052ea80095eea800054ea90058
:1018d400746ea900854ea9000070ef003000370037
:1018e40090738000620060000000e0001400320089
:1018f400a0808000b1808000108088002180880052
:1019040010c0b30006f0b700854ea80020c0b30095
:1019140000f0b700054ea800e0c1b300004f780006
:10192400d0c2b3001047980040c1b30020479800cc
:1019340030c2b3000bf0b700a027210060808800fc
:1019440090738000640060000000e0001400320026
:10195400a0808000b18080001080880021808800f1
:1019640010c0b30006f0b700854ea80020c0b30035
:1019740000f0b700746ea80090c1b300004f780067
:1019840030c2b3001047980020c1b300204798002c
:1019940040c1b3000bf0b7002042210060808800f2
:1019a40006d0bf000004e000cdff32004101370043
:1019b400a2808000b380800010808000218080009d
:1019c4000001510081815900f060840001618400ac
:1019d400800f5100818f5900030039000670ef0019
:1019e40097ff07003601370071070700e14f5000e9
:1019f400ce003a0072070700690707002007980025
:101a04002e009000100078008000eb0096fb070089
:101a1400323323003305240077fd07000200200041
:101a24000358240095fc07003007980041079800ec
:101a34003e019000ce01900000002000812024008f
:101a44008efc070002002000030a24009dfb07000f
:101a540030828800418288002e0090000080e800d7
:101a6400100078008000eb007ffb07003233230076
:101a74003305240060fd0700020020000358240001
:101a84007efc070030079800410798003e01900053
:101a9400ce019000000020008120240077fc070084
:101aa40002002000030a240086fb0700108288003d
:101ab400218288002e00900064004000100078000d
:101ac4008000eb0068fb0700323323003305240059
:101ad40049fd0700020020000358240067fc0700aa
:101ae40030079800410798003e019000ce01900015
:101af400000020008120240060fc07000200200078
:101b0400030a24006ffb0700f0818800018288002b
:101b14002e00900066004000100078008000eb006a
:101b240051fb0700323323003305240032fd070044
:101b3400020020000358240050fc070030079800de
:101b4400410798003e019000ce0190000000200063
:101b54008120240049fc070002002000030a24001d
:101b640058fb0700d0818800e18188002e00900096
:101b740068004000100078008000eb003afb07008a
:101b840032332300330524001bfd0700020020002c
:101b94000358240039fc07003007980041079800d7
:101ba4003e019000ce01900000002000812024001e
:101bb40032fc070002002000030a240041fb070056
:101bc40050828800618288000770ef0038828000ac
:101bd400498280002e4090000080fb00cf80de0010
:101be4001efb07001ac0b3000001be000800be00bf
:101bf400dafa07000000e000010035000045eb00c0
:101c04000a04e0000300320007d0bf000044a00033
:101c140007f0b70018828000298280001e80fb0034
:101c2400cf80de000dfb07001ac0b3000001be0028
:101c34000800be00c9fa07000000e00001003500fa
:101c44000045eb000a04e0000300320007d0bf00a7
:101c54000034a00007f0b700f881800009828000fa
:101c64001e4090000080fb00cf80de00fbfa0700de
:101c74001ac0b3000001be000800be00b7fa070096
:101c84000000e000010035000045eb000a04e0001c
:101c94000300320007d0bf000024a00007f0b70003
:101ca400d8818000e98180001e80fb00cf80de00a7
:101cb400eafa07001ac0b3000001be000800be0023
:101cc400a6fa07000000e000010035000045eb0023
:101cd4000a04e0000300320007d0bf000014a00093
:101ce40007f0b70058828000698280002e4090007f
:101cf4000080fb00cf80de00d8fa07001ac0b300d2
:101d04000001be000800be0094fa07000000e000d5
:101d1400010035000045eb000a04e0000300320036
:101d240007d0bf000004a00007f0b700f8818000ce
:101d3400098280001e4090000080fb00cf80de00fe
:101d4400c6fa07001ac0b3000001be000800be00b6
:101d540084fa07000000e00001003c000045eb00ad
:101d64000a80fb00610060004400dd0021748000f3
:101d74000140a100010070002074880018828000d6
:101d8400298280001e80fb00cf80de00b3fa0700aa
:101d94001ac0b3000001be000800be0071fa0700bb
:101da4000000e00001003c000045eb000a80fb005d
:101db400610060004500dd00217480000150a10035
:101dc40001007000207488003882800049828000fd
:101dd4002e4090000080fb00cf80de009ffa0700b9
:101de4001ac0b3000001be000800be005dfa07007f
:101df4000000e00001003c000045eb000a80fb000d
:101e0400610060004600dd00217480000160a100d3
:101e14000100700020748800d8818000e98180006e
:101e24001e80fb00cf80de008cfa07001ac0b300ce
:101e34000001be000800be004afa07000000e000ee
:101e440001003c000045eb000a80fb0061006000db
:101e54004b00dd002174800001b0a100010070007e
:101e64002074880058828000698280002e4090008f
:101e74000080fb00cf80de0078fa07001ac0b300b0
:101e84000001be000800be0036fa07000000e000b2
:101e940001003c000045eb000a80fb00610060008b
:101ea4004a00dd00a173800001a0a10001007000c0
:101eb400a073880006d0bf00e14f5000bcfe320082
:101ec4000000eb004f0578004f04be000080fa00cc
:101ed400000006000a00fa00a0002000000f7800ad
:101ee4005000200010079800700020002007980080
:101ef400c000200030079800e0012000400798004f
:101f040000d0bf000080fb00cf80de007201200003
:101f140003002000820f5000838f58005e013e00b2
:101f24000006010017003700210037002a0037009f
:101f34003a0037003c003700480037006d00370096
:101f4400860037004800370061003700b1003700d1
:101f5400ca003700d3003700ec003700890037008f
:101f6400a2003700f30037000c0137004a013700a4
:101f74004901370013013700240137002d013700d0
:101f84003b0137001830ef001a30ef000041eb003e
:101f94006000b800c703070012c0b3006000b800b7
:101fa400c403070010c0b30000f0b7004e013700af
:101fb400c2808000d3808000803e20000100200089
:101fc400800f5100818f59003601360020c0b300c4
:101fd40000f0b700440137000bd0bf000080fb00c5
:101fe4008000eb0020fa07000041eb00b10307007a
:101ff4000bd0bf000080fb008000eb001afa070042
:1020040012c0b300ab03070030c0b30000f0b70048
:102014000970ef000a70ef00330137006080800020
:1020240000000100300137000041eb0000002000f7
:10203400011724009f03070012c0b3000000200012
:10204400011724009b03070050c0b30000f0b70041
:102054000970ef000a70ef002301370060808000f0
:10206400000001002001370009d0bf000040e80053
:1020740009f0b7000a70ef00910021009140780048
:1020840020c3b30080cf50000400360060c1b30009
:1020940000f0b7000970ef00130137000041eb00b6
:1020a40000002000011f24008203070012c0b300b7
:1020b40000002000011224007e0307001830ef0006
:1020c4001a30ef0090c0b30000f0b70006013700eb
:1020d4002e0090006101b800c0808000d180800093
:1020e400800f5100818f5900f0003100000107007a
:1020f400fd00370009d0bf000040e80009f0b70038
:102104000a70ef00910021009140780020c3b300d1
:1021140080cf50000400360060c1b30000f0b70067
:102124000970ef00f00037000041eb0000002000d0
:10213400011f24005f03070012c0b3000000200049
:10214400011a24005b0307001830ef001a30ef0077
:1021540070c0b30000f0b700e30037001e00900029
:102164006101b800c0808000d1808000800f5100e0
:10217400818f5900cf003100608080000000010091
:10218400d900370009d0bf000040e80009f0b700cb
:102194000a70ef00910021009140780020c3b30041
:1021a40080cf50000400360060c1b30000f0b700d7
:1021b4000970ef00cc0037000041eb000000200064
:1021c400011724003b03070012c0b30000002000e5
:1021d40001172c00370307001830ef001a30ef0006
:1021e400f0c0b30000f0b700bf0037003e0090001d
:1021f4006101b800c0808000d1808000800f510050
:10220400818f5900ad003100608080000000010022
:10221400b50037000ad0bf000040e8000af0b7005c
:102224000970ef00a10021009140780020c3b300a1
:1022340080cf50000400360060c1b30000f0b70046
:102244000a70ef00a80037000041eb0000002000f6
:10225400011a24001703070012c0b3000000200075
:10226400011f2400130307001830ef001a30ef0099
:10227400b0c0b30000f0b7009b0037001e00900010
:102284006101b800c0808000d1808000800f5100bf
:10229400818f59008b0031006080800000000100b4
:1022a400910037000ad0bf000040e8000af0b700f0
:1022b4000970ef00a10021009140780020c3b30011
:1022c40080cf50000400360060c1b30000f0b700b6
:1022d4000a70ef00840037000041eb00000020008a
:1022e40001122400f302070012c0b3000000200012
:1022f400011f2400ef0207001830ef001a30ef002e
:10230400d0c0b30000f0b700770037002e00900073
:102314006101b800c0808000d1808000800f51002e
:10232400818f590069003100608080000000010045
:102334006d0037000ad0bf000040e8000af0b70083
:102344000970ef00a10021009140780020c3b30080
:1023540080cf50000400360060c1b30000f0b70025
:102364000a70ef00600037000041eb00000020001d
:10237400011a2c00cf02070012c0b3000000200095
:10238400011a2400cb0207001830ef001a30ef00c6
:1023940010c1b30000f0b700530037003e009000b6
:1023a4006101b800c0808000d1808000800f51009e
:1023b400818f5900470031006080800000000100d7
:1023c400490037000041eb0000002000011a2c00f6
:1023d400b802070012c0b30000002000011a2c004c
:1023e400b40207001830ef001a30ef0008d0bf0025
:1023f4000040e80008f0b7000970ef000a70ef0031
:1024040050c1b30000f0b700370037001e00780059
:102414006101b800c0808000d1808000800f51002d
:10242400818f59002d003100608080000000010080
:102434002d0037000970ef000a70ef000041eb0037
:1024440000002000811c24009a02070012c0b3007f
:1024540000002000811c2c00960207001830ef00b9
:102464001a30ef0070c1b30000f0b7001e0037004f
:102474004e0090006101b800c0808000d1808000cf
:10248400800f5100818f5900160031006080800058
:1024940000000100140037000070ef00000000008d
:1024a40011003700000000000f003700000000009a
:1024b4000d003700000000000b0037000000000092
:1024c400090037000000000007003700000000008a
:1024d4000500370000000000030037000000000082
:1024e40001003700000000000080fa000000060030
:1024f4000800fa00881f780000002000010a240068
:10250400008fbe0007d0bf000080fb0064006000a5
:102514000000e0002000320007d0bf000080fb0074
:10252400680060000000e00005003a0007d0bf002a
:102534000080fb00620060000000e0000300320045
:1025440040c1b3000ef0b7009a0037001482800037
:1025540025828000d0818000e181800018c0b30012
:102564000001be000400be007ef807000000e00089
:1025740001003c000044eb000804e00003003200ca
:10258400e0c0b3000ef0b7008a00370000c1b3000a
:102594000ef0b7008700370010828000218280008f
:1025a40018c0b3001e0178009e0190006bf807006c
:1025b4000000e000010035000044eb000804e000e6
:1025c4000b003a00308280004182800018c0b300c2
:1025d4001e0178009e01900060f807000000e000f2
:1025e400010035000044eb000804e0000300320061
:1025f40000c1b3000ef0b7006e003700d081800038
:10260400e181800018c0b3001e0178009e01900093
:1026140052f807000000e000010035000044eb0020
:102624000804e0000b003a005082800061828000c0
:1026340018c0b3001e0178009e01900047f80700ff
:102644000000e000010035000044eb000804e00055
:1026540003003200e0c0b3000ef0b70055003700ad
:1026640007d0bf000080fb00680060000000e000ad
:102674002d00320007d0bf000080fb006200600024
:102684000000e000280032001482800025828000cf
:10269400d0818000e18180000001be000400be0002
:1026a40088f80700200798003107980018c0b30085
:1026b40002002000030a24002e009000be009000b7
:1026c40028f807000000e00001003c000044eb0093
:1026d4000804e0000300320060c0b3000ef0b7004d
:1026e4003400370018c0b30002002000030a2c0095
:1026f4002e009000be00900018f807000000e000d3
:10270400010035000044eb000804e000030032003f
:10271400a0c0b3000ef0b7002600370040c0b300dd
:102724000ef0b7002300370007d0bf000080fb0085
:10273400680060000000e00003003200c0c0b30085
:102744000ef0b7001b00370007d0bf000080fb006d
:10275400700060000000e00003003200a0c0b3007d
:102764000ef0b7001300370007d0bf000080fb0055
:10277400620060000000e0000300320080c0b3008b
:102784000ef0b7000b00370007d0bf000080fb003d
:1027940061006000004078000004e00003003200a3
:1027a40060c0b3000ef0b7000200370020c0b300d1
:1027b4000ef0b7000ed0bf00f44f500004003a00f2
:1027c400808080006a004000808088000900370013
:1027d4000ed0bf00e24f500006003a008080800017
:1027e4000000e00003003400808080000000e90065
:1027f400808088008180800010032000808f50003a
:102804000300340060c1b3000ef0b7001030ef00d5
:102814000ed0bf008080fb0000d0bf000080fb0012
:102824000000e900808f5000020032000ed0bf008b
:1028340000f0b7004f0478000080fa0000000600a2
:102844000000fa0007d0bf000080fb0064006000b5
:102854000000e0000d00320007d0bf000080fb0044
:10286400680060000000e0000800320007d0bf00ec
:102874000080fb00620060000000e0000300320002
:1028840060c1b3000ef0b7001a00370007d0bf00d4
:102894000080fb00680060000000e00003003a00d4
:1028a400e0c0b3000ef0b7001200370007d0bf003d
:1028b4000080fb00640060000000e00003003200c0
:1028c40000c1b3000ef0b7000a00370007d0bf0004
:1028d4000080fb00700060000000e0000300320094
:1028e400a0c0b3000ef0b7000200370020c0b30050
:1028f4000ef0b7000ed0bf008080fb0000d0bf00f8
:102904000080fb000000e900808f500002003200cc
:102914000ed0bf0000f0b7000080fa0000000600ef
:102924000000fa001160800080ff2f00008060002a
:1029340010608800009620002060880011618000eb
:1029440000c02000010070001061880023cca800a2
:1029540023eca80030002000206188001162800070
:1029640000c02000010070001062880043cca80061
:1029740043eca800300020002062880001eca8008d
:102984000080fa00000006000800fa00881f7800a2
:10299400008fbe0022079800330798000200200031
:1029a40003f823002e009000be0090006bf7070090
:1029b4000000e00033003a0018c0b3006011b80012
:1029c4001e0078009e00900064f707000000e000fd
:1029d400010035000044eb000804e000150032005b
:1029e400e0808000f180800081f70700000078001b
:1029f400306188001e0078009e00900001f0a20063
:102a040002002000031c24007bf907000002be0022
:102a1400e0808000f18080000001be000400be0060
:102a2400b1f7070072f707000000780070618800b2
:102a34004c00370002002000031c24001e00780014
:102a44009e0090006cf907000002be00e080800048
:102a5400f18080000001be000400be00a2f7070060
:102a640063f707000000780030618800e080800090
:102a7400f18080005ef70700000078007061880034
:102a8400380037006011b8002e009000be0090009e
:102a940032f707000000e00032003a0018c0b3002b
:102aa4006011b8001e0078009e0090002bf707000c
:102ab4000000e000010035000044eb000804e000e1
:102ac40015003200e0808000f180800048f70700a4
:102ad40000007800306288001e0078009e0090009c
:102ae40001f0a20002002000031c240042f90700a8
:102af4000002be00e0808000f18080000001be0082
:102b04000400be0078f7070039f7070000007800da
:102b1400706288001300370002002000031c2400a8
:102b24001e0078009e00900033f907000002be00ea
:102b3400e0808000f18080000001be000400be003f
:102b440069f707002af70700000078003062880060
:102b5400e0808000f180800025f707000000780005
:102b6400706288004f0478000080fa0000000600bc
:102b74000000fa00889fbe00748180008581800077
:102b8400508180006181800018c0b3000001be0044
:102b94000400be00f1f607000000e000010035006b
:102ba4000044eb000804e0000d003200588180006e
:102bb40069818000748180008581800000818000ab
:102bc400118180000001be000400be0046f707002a
:102bd4000801be001102070070818800818188000d
:102be4007481800085818000508180006181800033
:102bf40018c0b3000001be000400be00d9f60700ef
:102c04000000e00001003c000044eb000804e00088
:102c14000d00320058818000698180007481800039
:102c24008581800000818000118180000001be0048
:102c34000400be0023f707000801be00df010700ff
:102c4400708188008181880070818000818180008a
:102c540018c0b3006011b800c2f607000000e0001d
:102c640001003c000044eb000804e00014003200c2
:102c7400708180008181800002002000031c2400f8
:102c8400ddf807000002be00e0808000f1808000d3
:102c94000001be000400be0013f70700d4f60700cd
:102ca4000000780030618800e0808000f1808000be
:102cb400cff6070000007800706188001400370028
:102cc400e0808000f1808000c9f6070000007800f1
:102cd40030618800708180008181800001f0a20051
:102ce40002002000031c2400c3f807000002be00f9
:102cf400e0808000f18080000001be000400be007e
:102d0400f9f60700baf60700000078007061880041
:102d1400b4818000c581800090818000a181800001
:102d240018c0b3000001be000400be008bf607000b
:102d34000000e000010035000044eb000804e0005e
:102d44000d00320098818000a9818000b481800048
:102d5400c581800000818000118180000001be00d7
:102d64000400be00e0f607000801be00ab01070046
:102d7400b0818800c1818800b4818000c581800051
:102d840090818000a181800018c0b3000001be00c2
:102d94000400be0073f607000000e00001003c00e0
:102da4000044eb000804e0000d003200988180002c
:102db400a9818000b4818000c581800000818000e9
:102dc400118180000001be000400be00bdf60700b2
:102dd4000801be0079010700b0818800c181880024
:102de400b0818000c181800018c0b3006011b800b8
:102df4005cf607000000e00001003d000044eb0029
:102e04000804e00014003200b0818000c181800019
:102e140002002000031c240077f807000002be0013
:102e2400e0808000f18080000001be000400be004c
:102e3400adf607006ef607000000780030628800e7
:102e4400e0808000f180800069f6070000007800cf
:102e54007062880014003700e0808000f1808000f8
:102e640063f607000000780030628800b0818000bb
:102e7400c181800001f0a20002002000031c240094
:102e84005df807000002be00e0808000f180800051
:102e94000001be000400be0093f6070054f60700cc
:102ea40000007800706288004f04be000080fa00c1
:102eb400000006000600fa00008fbe00424798009a
:102ec4004e409000e14f500005003a001e0178008a
:102ed4009e019000528188006381880008003700b9
:102ee4004e4090000004e00005003a001e00780007
:102ef4009e00900001f0a20090818800a1818800ca
:102f04000080fa00000006000000fa0005e1a900b4
:102f14000421a9000068a9002068a80005e1a80010
:102f240000002400c16124001b0007000080fa0097
:102f3400000006000000fa0013e1a90011e1a90055
:102f44001061a8001021a90081088000f0fc2f0066
:102f540000806000800888000a21ef000621ef004d
:102f6400303920007008880000702800600888004c
:102f74002142800080ff2f00008060000000a0003c
:102f8400204288000108a9002108a80011e1a80036
:102f94000080fa00000006000400fa00881f780090
:102fa400008fbe0021088000f0fc2f00008060002c
:102fb400200888001e0178009e019000001c2e004d
:102fc40041c624002df7070018c0b30002f02f00fb
:102fd400f3772400e3f507000000e00001003c0063
:102fe4000044eb000804e000540032002108800093
:102ff400f0fc2f00008060000040a0002008880042
:103004001e0178009e019000001c2e0041c6240081
:103014001af70700020020000310240017f7070026
:1030240018c0b30002f02f00f3772400cdf5070099
:103034000000e00001003c000044eb000804e00054
:103044003200320021088000f0fc2f000080600074
:103054000050a000200888001e0178009e01900006
:10306400001c2e0041c6240004f7070002002000c3
:103074000328240001f7070018c0b30002f02f0052
:10308400f3772400b7f507000000e00001003c00de
:103094000044eb000804e000100032002108800026
:1030a4000003200001007000200888001e01780041
:1030b4009e019000001c2e0041c62400eff607007c
:1030c4000200200003382400ecf60700a7f50700ef
:1030d4000000780010088800200037001e017800e6
:1030e4009e019000001c2e0041c62400e3f6070058
:1030f4000200200003282400e0f607009bf50700e7
:103104000000780010088800140037001e017800c1
:103114009e019000001c2e0041c62400d7f6070033
:103124000200200003102400d4f607008ff50700e6
:103134000000780010088800080037001e0178009d
:103144009e019000001c2e0041c62400cbf607000f
:1031540086f5070000007800100888004f04780006
:103164000080fa00000006000000fa001fe1a90038
:103174001e21a9000368a9002368a8001fe1a80074
:1031840000002000a1472400020007000080fa008c
:10319400000006000400fa00881f7800008fbe00bb
:1031a400f1088000f0fc2f0000806000f008880027
:1031b4001e0178009e019000001c2e0041c62400d0
:1031c400aef6070018c0b30002f02f00f377240016
:1031d40064f507000000e00001003c000044eb003f
:1031e4000804e00054003200f1088000f0fc2f00d5
:1031f400008060000040a000f00888001e017800f4
:103204009e019000001c2e0041c624009bf607007e
:10321400020020000310240098f6070018c0b30031
:1032240002f02f00f37724004ef507000000e000c1
:1032340001003c000044eb000804e00032003200ce
:10324400f1088000f0fc2f00008060000050a00016
:10325400f00888001e0178009e019000001c2e00da
:1032640041c6240085f6070002002000032824003c
:1032740082f6070018c0b30002f02f00f377240091
:1032840038f507000000e00001003c000044eb00ba
:103294000804e00010003200f10880000003200060
:1032a40001007000f00888001e0178009e01900063
:1032b400001c2e0041c6240070f607000200200006
:1032c400033824006df6070028f507000000780095
:1032d400d0088800200037001e0178009e0190006d
:1032e400001c2e0041c6240064f6070002002000e2
:1032f4000328240061f607001cf50700000078008d
:10330400d0088800140037001e0178009e01900048
:10331400001c2e0041c6240058f6070002002000bd
:103324000310240055f6070010f50700000078008c
:10333400d0088800080037001e0178009e01900024
:10334400001c2e0041c624004cf6070007f50700b8
:1033540000007800d00888004f0478000080fa004c
:10336400000006000400fa00881f7800008fbe00e9
:1033740018c0b3006011b8001e0078009e009000d1
:10338400f8f407000000e00001003d000044eb00f9
:103394000804e000030032001e0078009e00900044
:1033a400030037001e0078009e00900001f0a20088
:1033b4004f0478000080fa00000006000800fa00bc
:1033c400881f7800008fbe002207980033079800fa
:1033d40018c0b3002e019000be0190001e007800ba
:1033e4009e009000dff407000000e00001003c00b4
:1033f4000044eb000804e000030032001e007800e3
:103404009e009000020037002e009000be00900045
:103414004f0478000080fa00000006000800fa005b
:10342400881f7800008fbe00220798003307980099
:1034340018c0b3002e019000be0190001e00780059
:103444009e009000c5f407000000e0000100350074
:103454000044eb000804e000030032001e00780082
:103464009e009000020037002e009000be009000e5
:103474004f0478000080fa00000006000c00fa00f7
:10348400881f7800008fbe00220798003307980039
:10349400440798005507980018c0b3004e019000e7
:1034a400de0190001e0078009e009000adf407003d
:1034b4000000e00001003c000044eb000804e000d0
:1034c400040032004e019000de019000028fbe0025
:1034d4000e00370018c0b3002e019000be0190000a
:1034e4001e0078009e0090009cf407000000e0009d
:1034f400010035000044eb000804e0000300320042
:103504002e019000be019000028fbe001e007800c4
:103514009e0090004f0478000080fa00000006002e
:103524000400fa00008fbe00b2fd200093042400c2
:103534001e0078009e009000d0f5070002002000d5
:1035440043332400acf607000080fa0000000600b4
:103554000400fa00008fbe00b2fd20009304240092
:103564001e0078009e009000a3f6070002002000d1
:1035740043332400c1f507000080fa000000060070
:103584000000fa00413a800000fc2f000080600037
:103594007001b300403a8800313a800000e02f0007
:1035a400808060008005200001007000303a8800af
:1035b400213a8000f0f32f0000806000203a880058
:1035c400213a800000fe2f00008060000000a0006f
:1035d400203a88001200200080072000a109200062
:1035e400337420008049780081497800824978004a
:1035f400103a8000000178000200a000600420005e
:1036040071052000237420008049780081497800e6
:103614008249780000000000113a80000000270071
:103624008080600000002100808f5000faff3a0083
:103634005927a800c13a800080ff2f000080600055
:103644000000a000c03a8800d03a80007000b300a7
:10365400d03a8800c13a8000f0f12f0080806000e9
:10366400000c200001007000c03a880059a7a8008f
:1036740059e7a80000000000c13a800000002400bf
:10368400008060000000e000fbff3200000000004a
:10369400113a800000022000008060000000e00079
:1036a400fbff32000080fa00000006000000fa0070
:1036b40021e3a9002143a80001198000f0cf2f00c5
:1036c40000806000001988002043a90001198000cf
:1036d400000e2000010070000019880011198000fc
:1036e400f0ff210000806000101988002343a80027
:1036f40011198000f0cf2f0000806000101988009d
:103704001119800030f82f00008060000040a000f4
:10371400101988002203a9002223a90025e3a90087
:1037240080c0b30024e3b70021198000f00f2e00fd
:10373400008060000090a000201988003303a900d5
:103744001f0ea8001f2ea8001f4ea8001f6ea80061
:103754001e0ea8003103a8003123a8003143a8009d
:103764003163a8003003a8004119800000fe2f0037
:10377400008060004019880028e3a90001a8a9007e
:1037840021a8a80021e3a8000080fa000000060098
:103794000000fa002023a8000080fa0000000600c0
:1037a4000000fa00e00421000080fa000000060096
:1037b4000000fa0025d0bf000080fa0000000600d7
:1037c4000000fa002570ef000080fa0000000600f7
:1037d4000000fa000e2eef001e2eef003e2eef002a
:1037e4002e2eef004e2eef006e2eef0080cea9009d
:1037f40080aea900808ea900816ea900714ea90037
:1038040091eea900000ea900012ea900014ea90005
:10381400706ea900814ea900702ea900704ea900f7
:103824000c000700020007000080fa0000000600f8
:103834000000fa00217420006204200073052000b7
:10384400824878008348780042c7a8000080fa00c4
:10385400000006000000fa00217420006204200029
:1038640073052000824878008348780042c7a90085
:083874000080fa0000000600cc
:020000040000fa
:10387c000010000012000000800000001210000078
:10388c000a00000080000000281000002600000044
:10389c00800000001c1000000800000082000000e6
:1038ac000000480042000000f04100004e100000f3
:1038bc000a0000008000000024100000020000003c
:1038cc0080000000261000000200000080000000b4
:0438dc0000000000e8
:020000040000fa
:0200000401f009
:04000800cfffff0027
:020000040000fa
:0200000401f009
:04000c00f9ffff00f9
:020000040000fa
:0200000401f009
:040010005bffff0093
:020000040000fa
:0200000401f009
:040014007fffff006b
:020000040000fa
:0200000401f009
:04001800cfffff0017
:020000040000fa
:0200000401f009
:04001c00deffff0004
:020000040000fa
:0200000401f009
:04002000cfffff000f
:00000001FF
