:020000040000fa
:080000000002040000000000f2
:020000040000fa
:04000800aa03000047
:020000040000fa
:04000c00aa03000043
:020000040000fa
:04001000aa0300003f
:020000040000fa
:04001400aa0300003b
:020000040000fa
:04001800aa03000037
:020000040000fa
:04001c00aa03000033
:020000040000fa
:04002000aa0300002f
:020000040000fa
:04002400aa0300002b
:020000040000fa
:04002800aa03000027
:020000040000fa
:04002c00aa03000023
:020000040000fa
:04003000aa0300001f
:020000040000fa
:04003400fe020000c8
:020000040000fa
:04003800aa03000017
:020000040000fa
:04003c00aa03000013
:020000040000fa
:04004000aa0300000f
:020000040000fa
:04004400aa0300000b
:020000040000fa
:040048002803000089
:020000040000fa
:04004c00aa03000003
:020000040000fa
:04005000aa030000ff
:020000040000fa
:04005400aa030000fb
:020000040000fa
:04005800aa030000f7
:020000040000fa
:04005c008603000017
:020000040000fa
:04006000aa030000ef
:020000040000fa
:04006400aa030000eb
:020000040000fa
:04006800aa030000e7
:020000040000fa
:04006c00aa030000e3
:020000040000fa
:04007000aa030000df
:020000040000fa
:04007400aa030000db
:020000040000fa
:04007800aa030000d7
:020000040000fa
:04007c00aa030000d3
:020000040000fa
:04008000aa030000cf
:020000040000fa
:04008400aa030000cb
:020000040000fa
:04008800aa030000c7
:020000040000fa
:04008c00aa030000c3
:020000040000fa
:04009000aa030000bf
:020000040000fa
:04009400480300001d
:020000040000fa
:04009800aa030000b7
:020000040000fa
:04009c00aa030000b3
:020000040000fa
:0400a000aa030000af
:020000040000fa
:0400a400aa030000ab
:020000040000fa
:0400a800aa030000a7
:020000040000fa
:0400ac00aa030000a3
:020000040000fa
:0400b000aa0300009f
:020000040000fa
:0400b400aa0300009b
:020000040000fa
:0400b800aa03000097
:020000040000fa
:0400bc00aa03000093
:020000040000fa
:0400c000aa0300008f
:020000040000fa
:0400c400aa0300008b
:020000040000fa
:0400c800aa03000087
:020000040000fa
:0400cc00aa03000083
:020000040000fa
:0400d000aa0300007f
:020000040000fa
:0400d400aa0300007b
:020000040000fa
:0400d800aa03000077
:020000040000fa
:0400dc00aa03000073
:020000040000fa
:0400e000aa0300006f
:020000040000fa
:0400e400aa0300006b
:020000040000fa
:0400e800aa03000067
:020000040000fa
:0400ec00aa03000063
:020000040000fa
:0400f000aa0300005f
:020000040000fa
:0400f400aa0300005b
:020000040000fa
:0400f800aa03000057
:020000040000fa
:0400fc00aa03000053
:020000040000fa
:04010000aa0300004e
:020000040000fa
:04010400aa0300004a
:020000040000fa
:04010800aa03000046
:020000040000fa
:04010c00aa03000042
:020000040000fa
:04011000aa0300003e
:020000040000fa
:04011400aa0300003a
:020000040000fa
:04011800aa03000036
:020000040000fa
:04011c00aa03000032
:020000040000fa
:04012000aa0300002e
:020000040000fa
:04012400aa0300002a
:020000040000fa
:04012800aa03000026
:020000040000fa
:04012c00aa03000022
:020000040000fa
:04013000aa0300001e
:020000040000fa
:04013400aa0300001a
:020000040000fa
:04013800aa03000016
:020000040000fa
:04013c00aa03000012
:020000040000fa
:04014000aa0300000e
:020000040000fa
:04014400aa0300000a
:020000040000fa
:04014800aa03000006
:020000040000fa
:04014c00aa03000002
:020000040000fa
:04015000aa030000fe
:020000040000fa
:04015400aa030000fa
:020000040000fa
:04015800aa030000f6
:020000040000fa
:04015c00aa030000f2
:020000040000fa
:04016000aa030000ee
:020000040000fa
:04016400aa030000ea
:020000040000fa
:04016800aa030000e6
:020000040000fa
:04016c00aa030000e2
:020000040000fa
:04017000aa030000de
:020000040000fa
:04017400aa030000da
:020000040000fa
:04017800aa030000d6
:020000040000fa
:04017c00aa030000d2
:020000040000fa
:04018000aa030000ce
:020000040000fa
:04018400aa030000ca
:020000040000fa
:04018800aa030000c6
:020000040000fa
:04018c00aa030000c2
:020000040000fa
:04019000aa030000be
:020000040000fa
:04019400aa030000ba
:020000040000fa
:04019800aa030000b6
:020000040000fa
:04019c00aa030000b2
:020000040000fa
:0401a000aa030000ae
:020000040000fa
:0401a400aa030000aa
:020000040000fa
:0401a800aa030000a6
:020000040000fa
:0401ac00aa030000a2
:020000040000fa
:0401b000aa0300009e
:020000040000fa
:0401b400aa0300009a
:020000040000fa
:0401b800aa03000096
:020000040000fa
:0401bc00aa03000092
:020000040000fa
:0401c000aa0300008e
:020000040000fa
:0401c400aa0300008a
:020000040000fa
:0401c800aa03000086
:020000040000fa
:0401cc00aa03000082
:020000040000fa
:0401d000aa0300007e
:020000040000fa
:0401d400aa0300007a
:020000040000fa
:0401d800aa03000076
:020000040000fa
:0401dc00aa03000072
:020000040000fa
:0401e000aa0300006e
:020000040000fa
:0401e400aa0300006a
:020000040000fa
:0401e800aa03000066
:020000040000fa
:0401ec00aa03000062
:020000040000fa
:0401f000aa0300005e
:020000040000fa
:0401f400aa0300005a
:020000040000fa
:0401f800aa03000056
:020000040000fa
:0401fc00aa03000052
:020000040000fa
:04020000aa0300004d
:020000040000fa
:04020400aa03000049
:020000040000fa
:04020800aa03000045
:020000040000fa
:04020c00aa03000041
:020000040000fa
:04021000aa0300003d
:020000040000fa
:04021400aa03000039
:020000040000fa
:04021800aa03000035
:020000040000fa
:04021c00aa03000031
:020000040000fa
:04022000aa0300002d
:020000040000fa
:04022400aa03000029
:020000040000fa
:04022800aa03000025
:020000040000fa
:04022c00aa03000021
:020000040000fa
:04023000aa0300001d
:020000040000fa
:04023400aa03000019
:020000040000fa
:04023800aa03000015
:020000040000fa
:04023c00aa03000011
:020000040000fa
:04024000aa0300000d
:020000040000fa
:04024400aa03000009
:020000040000fa
:04024800aa03000005
:020000040000fa
:04024c00aa03000001
:020000040000fa
:04025000aa030000fd
:020000040000fa
:04025400aa030000f9
:020000040000fa
:04025800aa030000f5
:020000040000fa
:04025c00aa030000f1
:020000040000fa
:04026000aa030000ed
:020000040000fa
:04026400aa030000e9
:020000040000fa
:100400006f0521000eff27000e018800000000008c
:10041000000020000000e000020032000001200087
:100420002002880014000700cc0007000000e00054
:1004300003003a0060b721000100200002003700ed
:100440000000200001002000810f70000100320038
:100450000f000700000020000000e0000200320052
:1004600000000200000000006c0c02000000000010
:100470000040da000000fe00400020000000e00024
:1004800002003200002020009001880000000600d9
:10049000a1028800800478000000eb001f003700f4
:1004a000e284440054a0b4009905ba00e2844400f8
:1004b00054a0b4009906ba00e284440054a0b400e9
:1004c0000006eb00476fde00fd07b200ae018800ba
:1004d000636ce10003003a000ad801000000eb0061
:1004e0000e003700606ce10008003a00004deb00a0
:1004f0000a05e800020039003420ec000af0a000f0
:100500008b05e900f9ff3e00040037006168e10057
:10051000010032000086eb000b00070019c7ba008b
:100520000e04e0001905ba0003003a000a00e000da
:10053000dbff3a0000000600fe07b200ae028800b2
:100540008a047800f5ff37000cd0a300e20f4d00bd
:100550001c003b0089027800354dba000a05e8000e
:10056000020039003420ec000af0a0008b05e900fd
:100570000f003200254dba000a05e80002003900dc
:100580003420ec000af0a0008b05e90008003200de
:100590000c00e0000600320015cdba000a05e800a4
:1005a000020039003420ec000af0a0008b05e900bd
:1005b0008984e80054a0b4000b00e000e2ff3a0098
:1005c000000006009902ba00055d78008b05e9007d
:1005d000f7ff3200c82ade00055d78008b05e900d0
:1005e000f3ff32000c00e000f1ff320019ddba0029
:1005f000eeff3700d011040000000000809fbe0015
:100600000000fa000068a90021708000002020008e
:100610000080600000f0a7000000ea000000e90090
:100620004f00de00004078000080fb0061006000a9
:100630004900dd00217080000190a10001007000e0
:10064000207088000080fa004f00be0000400600c5
:10065000809fbe000000fa000108a900a07480007d
:100660000080ea004f00de00004078000080fb00c0
:100670004f00dd00a174800001f0a10001007000b6
:10068000a07488000080fa004f00be000040060001
:100690003600f800809fbe00829fbe00849fbe008f
:1006a000869fbe000000fa000368a90090808000c9
:1006b000a180800061004000e080480090808800b8
:1006c000a1808800708080008180800061004000ef
:1006d000e0804800708088008180880010c0b300ee
:1006e00016f0b700c70b070006060700bd08070095
:1006f0000080fa004f03be004f02be004f01be0053
:100700004f00be003600f90000400600801f780050
:100710000000fa0001a8a90000188000608288008b
:100720001018800070828800201880008082880065
:10073000301880009082880040188000a0828800d5
:1007400010c0b30023f0b7000080fa004f0078001b
:10075000004006000040da000000fe000000050036
:1007600014002000aa033700f4ff2f00a80337006d
:100770000001be003c0007000470a70003f0a100c8
:100780006509b100160032000d0035006828e1004f
:1007900006003500f0ff2f00f1ff27000300e00006
:1007a00013003b000100280000000500000040008d
:1007b000818048008502e900fcff3a00080037000c
:1007c000f88f420002003c008000eb0000000500b2
:1007d0008100d1000080d3008502e800fcff3a00d0
:1007e0000300e00002003b0060001000e080180001
:1007f000000006000001be001b0007000470a700f7
:1008000003f0a10003f8a30013003a006509b1004a
:1008100010003200090035006928e10002003500af
:100820000100280000000500000040008180480011
:100830008502e900fcff3a0000000600f88f420044
:10084000050035008100d1000080d3008502e8005a
:10085000fcff3a00000006008000eb0000000500ed
:100860006011b80085033700c70ade00f107b20047
:10087000f50fb20008003200e1cf42000200320062
:100880000170a00024000500810f700001003200fb
:100890000408050044000500810f700002003a00c2
:1008a000140005008502e9000000400081c04800f6
:1008b000fcff3b000170a0002400050007f82700a2
:1008c000078361000638e10004003a00f7072000c2
:1008d000878361008703710001003a0003f0a200e2
:1008e000889fbe008a9fbe008c9fbe00470ade0024
:1008f0000480a100c71ade000580a10007002800bf
:100900000785600087856100f70f20000720e10060
:100910009e0032000728e1009c00320001067800aa
:100920000400e000b4003200f70720008780600078
:100930000170a0000500e000c0003200f7072000b1
:10094000878161000370a000050652000f003a0085
:100950000b50e1000b0032000308e10002003a00f6
:100960000200e1007e00320002045000838458003f
:10097000040031000001fd008101fd008402fd0042
:100980008a05fd006044b800210037000520e10021
:1009900005003d000001fd008101fd008402fd0015
:1009a0008a05fd00050652007a60e1000500350069
:1009b0000170a1004722dd00848070008a807000f1
:1009c000630037006044b800ef02660007ff2f00a5
:1009d000070666000500e00006003400f083120000
:1009e0008714dd000511de00071bdd000601710024
:1009f0008519de007060e10005003500090478000b
:100a000082047800030178008001eb007006560034
:100a10000b50e10003003a000200400083804800d0
:100a20000400370060041400e0841c000200580039
:100a3000838058000188a300060032008100d100a5
:100a40000080d3008984d3000884d3000402e80026
:100a5000270037000178a30025003a000100e000dc
:100a6000030032008186cf00698656000a003700f5
:100a70008c0020000000e00004003a00090078002b
:100a8000880478000004eb00700252008086cf00da
:100a90000d0646000c06e9007060e1000600350016
:100aa0008000780009007800880478000004eb00da
:100ab00070065600700252000c00e0000c0034007a
:100ac0008c08dd00f00316000703de00868070004e
:100ad0000c00dd00074bde00060070008c4cdd00d2
:100ae0000743de00868474000c44dd000c025200d3
:100af0006120e1002000350061016000070028004e
:100b000087816400f7ff2700878364000703740070
:100b10000300e0000600320082037300040032008c
:100b20000000e800e08048000188a3000e003a00c1
:100b3000f70f20000720e1004a003d000170a100ee
:100b40004722dd00810072008a8070000000be0034
:100b50004f06be004f05be004f04be000000060059
:100b60006000b800faff37008100d1000080d30098
:100b70000402e800eeff37000401780089017400e8
:100b8000a10107008a807000f1ff3700f70107001c
:100b9000070278000001fd008101fd00f30107005c
:100ba00087027800850372000778a30004003200f2
:100bb0000001fd008101fd0006020700e4ff37008f
:100bc000850362000768a300080032000b50e100b3
:100bd00003003200f0ff2f00f1ff2700dcff370099
:100be0000001fd008101fd00d9ff37000468a3006a
:100bf000d7ff3200faff3700f8ff27008883600034
:100c00000b003a000000e00009003a008303640092
:100c100082837300020032000200be00ccff370066
:100c20000b50e100ceff3a000200be00c8ff3700c3
:100c300014002000810064003eff3700f8ff270009
:100c40008883610004003a000200e00002003a00dc
:100c50008c007800beff370015002000830164007f
:100c600039ff370001f827000000200081007500df
:100c7000b7ff3700889fbe008a9fbe008c9fbe00d2
:100c80001b0020000202be00058668000600280046
:100c9000060666004709de00f20fb200820032004d
:100ca0000243e80080003200c729de00f30fb200e3
:100cb0007d0032000343e8007b003200f107b20000
:100cc0000170a000f507b2000570a000c708dd00a4
:100cd0004903de00868070004700dd00c72add0082
:100ce0004923de00868272004722dd0003055100a1
:100cf00004035000858358000300310000004000c9
:100d0000818048000a05e9008c1f78008a9fbe0098
:100d100004005000858058000402420085824a0089
:100d200000004000818048000005eb000004be0088
:100d30006033b8000406be000d48e10056003100e3
:100d4000110009004dccd8000c01b8000d02b8000c
:100d50008481410060824a008283530003045c0066
:100d600084845c0060055d000a00e00025003a0014
:100d7000800578000d40e1004900310088007800ce
:100d800007007800110009004d88d8000c01b80058
:100d90000d02b8008481410060824a0060031100a6
:100da00083835b0004045c00e0845c000900e000d5
:100db00021003a004f01be000300e0002b0032008a
:100dc000e3016000070673008c81710001003200ae
:100dd000640070004200de004e5edd000c0070001a
:100de000c258de0001e0a00083010700cf017800b7
:100df000818071004f06be004f05be004f04be004b
:100e0000000006008c8343000d044c00e0844c007d
:100e100060054d000000e9000a00e000d4ff320048
:100e20008c8343000d044c00e0844c0060054d00b1
:100e30000000e900ceff37000c0343008d834b0018
:100e400060044c00e0844c000000e9000900e00070
:100e5000d8ff32000c0343008d834b0060044c002c
:100e6000e0844c000000e900d2ff37004200de00c1
:100e70004e5edd000c007000c258de0001e0a000f4
:100e8000cf0178000300e000daff320060001000bc
:100e9000e0801800d7ff3700f0ff2f00aaff3700cf
:100ea000f0ff2f00b9ff37000404be002f01070038
:100eb000870678000004fd008104fd002b01070077
:100ec000078366000678a300030032000960a700cc
:100ed0000800be002c0037000d78a300020032008d
:100ee0000800be00280037000778a30026003a005b
:100ef00001f0a10009f0a1000668a3000300320080
:100f0000f1ff2700f0ff2f00baff37000d68a300a4
:100f1000030032000800be008c807000b5ff37006f
:100f20000768a30007003a000648a3000300320048
:100f3000f1ff2700f0ff2f00aeff37000d48a300a0
:100f4000030032006000b8008c807000a9ff3700f9
:100f50000748a3000400320001f827000000200029
:100f60008c807000a3ff3700760107000004fd00ad
:100f70008104fd0002057800720107000802be002e
:100f80008a01780059ff37000160a000120220009a
:100f90002281880097ff37000100e0001200320034
:100fa0000500e00010003200889fbe008a9fbe004e
:100fb0008c9fbe000006eb0001f8a3000300320086
:100fc00060001000e08018000cf0a00005f8a300fd
:100fd0000300320060021200e0821a000cf0a2004e
:100fe0008005eb0041ff37006000b80002000500fb
:100ff000038368000700280007036300470ade0038
:101000000480a100c71ade000580a100f70f2000b0
:101010000720e100420032000728e10040003200d2
:10102000889fbe008a9fbe008c1f7800f107b20027
:10103000f307b2000400e000640032000170a00079
:101040000500e000680032000370a0008505420042
:10105000eb07b1000204b8000302b8008484440026
:1010600060854a00020ab800848444000a854a0068
:10107000030ab80004054500040033000804d0004a
:101080008984d2000a85d2008b05e9006158e1000d
:101090003d00350002102000090161000308200016
:1010a00089816100f7072000878364000886730048
:1010b000c84cde00c853dd00878474004855de004c
:1010c0000300e000060032008203760004003200d4
:1010d0008904e80060054d000a88a3000c003a006e
:1010e000f70f20000758e10044003d000a70a100fe
:1010f000c75ddd000a8575008a007300090078006d
:101100004f0678004f05be004f04be0000000600e9
:101110000a05d1008984d3008b05e800f0ff370071
:10112000881f780006047800900007000702780006
:101130000001fd008101fd008c000700870278009e
:10114000850372000778a300050032000001fd004e
:101150008101fd009f0007004f0478000000060099
:10116000850372000748a30003003200f0ff2f0040
:10117000f1ff2700f8ff37000000200001f82700ea
:1011800088807000f4ff3700880178004848dd004f
:10119000808171004848de00c850dd000100700009
:1011a000c850de00060478000b0178001600070026
:1011b00088807000d2ff37000500e0000500320093
:1011c000170020003a0007009dff370081037000e0
:1011d000f9ff3a00860078004f0678004f05be0000
:1011e0004f04be000000050083037100f9ff3200c8
:1011f000270020002e00070094ff370001f8270089
:1012000086807000f4ff37000100e0002600320005
:10121000610111007810e10023003c006022b80059
:101220007010e100040035008002780001007800b1
:101230008000eb00700151000200e0000900340062
:1012400070031100062add00822ade008603dd001d
:10125000878272000200de00860bdd00070070004e
:101260008208de0084817100f4ff2700048262009e
:1012700084817100040028008482620061026000a1
:1012800005f0a6000000060004827100070032008d
:101290000000e800e0804800000006000002be00f8
:1012a0006000b800efff37006000b80000000600e3
:1012b000889fbe000004eb006138e10016003a0090
:1012c0000100e00008003a00c800de004800dd0030
:1012d000880020000100e00003003a00c800de00a2
:1012e0004800dd00680444008184cf00e984540094
:1012f000060034008908dd00f08314008703de0057
:10130000878070000900dd000904440061021400b8
:101310004f04be00000006000300e00008003a0091
:10132000c811de004811dd00880020000300e00045
:1013300003003a00c811de004811dd0068044400d3
:101340008384cf00e9845400060034008919dd004d
:10135000f08314008713de00878171000911dd001e
:1013600009044400e1021400e9ff370027002000cf
:1013700001f0a70017002000470bde00f60fb200b7
:10138000040032000643e8000a0032004702b300be
:101390000000060001037800f607b20006037000a3
:1013a00002003a000703b300000006008702b30002
:1013b0000000060001037800f607b2000603700083
:1013c000020032000770a000000006000760a000c5
:1013d000000006000478a300040032000578a30092
:1013e000030032000168a30001003a000200be00c1
:1013f0000160a0000000060081017000270032009b
:101400008002eb0001f8a30003003200600010002e
:10141000e080180015002000f407200002024200be
:1014200020003400f703200087036000060420003a
:101430000003630002082000000161004700de0095
:10144000c909dd0000807100c708de000600e00069
:101450000800320087037100060032001000b0005f
:101460000180b0000188a30002003200c108de0044
:101470000402e800f107b200f30f20000320e100ae
:1014800003003d004722dd00810072002900370083
:1014900001f827000000eb00260037006000b800cc
:1014a00000000600680212007f20e1000200340004
:1014b0006000b8001f0037006011b8007020e10024
:1014c0000400350080017800010078008000eb0006
:1014d000700252000400e00009003400f003120022
:1014e0000719dd008419de000703dd008681710025
:1014f0000400de00070bdd00060070008408de003b
:10150000f7ff27008383630087037100060028002c
:1015100003036300070032000700e00003003a0005
:101520006101600002817300020032001000b0000f
:101530000180b0000500a6000000060001f0a00038
:10154000000006004f0ade004709de00f107b20086
:10155000f20fb2000b003200f207b1000170a000e0
:10156000c708dd00c901de00838070004700dd0090
:101570000400a6000000060060001000e0801800d3
:1015800000000600810f700001003a000000060014
:101590008182cf000500e00010003e008082cf0075
:1015a000ee8242007028e1000400390007003e008e
:1015b000800078000000eb000e00370070831200fe
:1015c0008600de000500dd000a003700708352004f
:1015d0008600dd000000eb0006003700e2825200ca
:1015e0008508dd00708312000603de00868070002f
:1015f0000500dd007507b0000501ea000400a60043
:101600000000060060001000e080180000000600e6
:10161000889fbe008a9fbe00841f78006c00070070
:101620004f00780011003300f0ff2f00838f6c0013
:1016300006003b00040565000a00a700080037000b
:1016400009f0a6001000200008003700820f5400a7
:10165000838f5c00030039001000200001003e0071
:101660000000200009f0a7000000ea004f05be00be
:101670004f04be000000e00000000600889fbe008e
:101680008a9fbe0000827000040271000482710013
:10169000260032000004be000200be006011b80047
:1016a0006b092000950220000182cf000a0039005a
:1016b0000541b1000082cf00070039000541b100ab
:1016c0000982cf00040039000541b1000882cf0033
:1016d000010039000541b1000542520012003200fc
:1016e0000a003b0082817100610164008100d10029
:1016f0000080d3008984d3000884d3008b05e800e0
:101700000442e800f7ff3a000700370008044400ed
:1017100089844c0000004800818048008b05e90066
:101720000442e900f9ff3a00030007004f05be003c
:101730004f04be00000006008100200061805500bb
:101740000b003d000b00200061fe2f000100e100b6
:101750001d00340082817100610164008904d100a0
:101760000884d3000000e800faff3a00710020006e
:101770006100640003007000020060000900320094
:1017800061044400e0844c000988a5000500320093
:101790008b05e8006808e10002003a008904d100e6
:1017a0000884d300f20f20000258e10005003d003c
:1017b000c75ddd00f907b200898075000800780078
:1017c000000006000bf827008b00780000000500e1
:1017d0000004be0024fc07000003be000405be0098
:1017e0000200be0020fc0700844f750000000600c8
:020000040000fa
:0817f000005300000700000097
:020000040000fa
:1017f8000000fa000041eb006000b800480507004f
:1018080012c0b3006000b80045050700854ea90066
:1018180084cea80084aea800848ea800856ea80097
:10182800754ea8000080fa00000006000000fa00cb
:10183800881f7800e0818000f181800018c0b30023
:1018480002002000031f2400c5fb07000000e00081
:1018580001003c000044eb000804e00018003200de
:10186800008280001182800018c0b30002002000ae
:10187800031f2400bafb07000000e00001003c0041
:101888000044eb000804e0000d003200c081800035
:10189800d181800018c0b30002002000031f24007b
:1018a800affb07000000e00001003c000044eb0033
:1018b8000804e00002003200100020000100370098
:1018c8000000eb004f0478000080fa0000000600da
:1018d8000600fa00881f7800c406070057070700ab
:1018e800240507002e050700ba050700a70307000f
:1018f8000907070084cea90084aea900848ea90038
:10190800856ea900754ea900854ea9000070ef00ec
:10191800001d21004080880010003700907380006f
:10192800620060000000e0000c003200708080005f
:1019380081808000108088002180880010c0b3005a
:1019480006f0b700854ea80020c0b30000f0b7002d
:10195800054ea80030c2b30020f0b70006d0bf0083
:101968000004e000edff32005d0137007280800066
:101978008380800010808000218080000001510059
:1019880081815900c05f8400d15f8400800f5100bd
:10199800818f5900030039000670ef0094ff07009b
:1019a800520137001d070700e14f5000fc003a00c4
:1019b8001e07070015070700200798002e00900053
:1019c800100078008000eb00a3fb070032332300ef
:1019d8003305240084fd070002002000035824007a
:1019e800a2fc0700008fbe0018c0b300d2cc2c00a8
:1019f800c3ec23001e0078009e00900056fb0700f1
:101a08000000e000010035000044eb000804e0009d
:101a180003003200d0cc2c00c1ec2300008fbe00a4
:101a280018c0b300d2cc2c00c3e423001e007800f9
:101a38009e0090004afb07000000e00001003c0007
:101a48000044eb000804e000090032001e017800a1
:101a58009e019000000020008120240083fc0700e4
:101a680002002000030a240092fb0700020037004e
:101a780000002000012a240020828800318288008a
:101a88002e0090000080e800100078008000eb0035
:101a980071fb0700323323003305240052fd070091
:101aa800020020000358240070fc0700008fbe00cd
:101ab80018c0b300d2cc2c00c3ec23001e00780061
:101ac8009e00900024fb07000000e00001003500a4
:101ad8000044eb000804e00003003200d0cc2c00e6
:101ae800c1ec2300008fbe0018c0b300d2cc2c007c
:101af800c3e423001e0078009e00900018fb070036
:101b08000000e00001003c000044eb000804e00095
:101b1800090032001e0178009e019000000020009c
:101b28008120240051fc070002002000030a240041
:101b380060fb07000200370000002000012a240093
:101b480000828800118288002e0090006400400006
:101b5800100078008000eb003ffb070032332300c1
:101b68003305240020fd070002002000035824004c
:101b78003efc0700008fbe0018c0b300d2cc2c007a
:101b8800c3ec23001e0078009e009000f2fa0700c4
:101b98000000e000010035000044eb000804e0000c
:101ba80003003200d0cc2c00c1ec2300008fbe0013
:101bb80018c0b300d2cc2c00c3e423001e00780068
:101bc8009e009000e6fa07000000e00001003c00db
:101bd8000044eb000804e000090032001e01780010
:101be8009e01900000002000812024001ffc0700b7
:101bf80002002000030a24002efb07000200370021
:101c080000002000012a2400e0818800f18188007a
:101c18002e00900066004000100078008000eb0065
:101c28000dfb07003233230033052400eefc0700c8
:101c380002002000035824000cfc0700008fbe009f
:101c480018c0b300d2cc2c00c3ec23001e007800cf
:101c58009e009000c0fa07000000e0000100350077
:101c68000044eb000804e00003003200d0cc2c0054
:101c7800c1ec2300008fbe0018c0b300d2cc2c00ea
:101c8800c3e423001e0078009e009000b4fa070009
:101c98000000e00001003c000044eb000804e00004
:101ca800090032001e0178009e019000000020000b
:101cb80081202400edfb070002002000030a240015
:101cc800fcfa07000200370000002000012a240067
:101cd800c0818800d18188002e00900068004000f3
:101ce800100078008000eb00dbfa07003233230095
:101cf80033052400bcfc0700020020000358240020
:101d0800dafb0700008fbe0018c0b300d2cc2c004d
:101d1800c3ec23001e0078009e0090008efa070096
:101d28000000e000010035000044eb000804e0007a
:101d380003003200d0cc2c00c1ec2300008fbe0081
:101d480018c0b300d2cc2c00c3e423001e007800d6
:101d58009e00900082fa07000000e00001003c00ad
:101d68000044eb000804e000090032001e0178007e
:101d78009e0190000000200081202400bbfb07008a
:101d880002002000030a2400cafa070002003700f4
:101d980000002000012a2400408288005182880027
:101da800e0818000f181800018c0b30002002000ab
:101db800c320240068fa07000000e0000100350095
:101dc8000044eb000880fb00610060004400dd0077
:101dd800217480000140a100010070002074880077
:101de800008280001182800018c0b3000200200029
:101df800831c240058fa07000000e00001003500a9
:101e08000044eb000880fb00610060004500dd0035
:101e1800217480000150a100010070002074880026
:101e2800c0818000d181800018c0b300020020006a
:101e3800831c240048fa07000000e0000100350078
:101e48000044eb000880fb00610060004b00dd00ef
:101e58002174800001b0a100010070002074880086
:101e6800408280005182800018c0b3000200200028
:101e7800831b240038fa07000000e0000100350049
:101e88000044eb000880fb00610060004a00dd00b0
:101e9800a173800001a0a10001007000a073880058
:101ea800208280003182800018c0b3000200200028
:101eb800831b240028fa07000000e0000100350019
:101ec8000044eb000880fb00610060004600dd0074
:101ed800217480000160a100010070002074880056
:101ee80006d0bf00e14f5000a0fe32000000eb001a
:101ef8004f0478000080fa00000006000000fa0095
:101f080000d0bf000080fb00cf80de0072012000ff
:101f180003002000820f5000838f580008013e0004
:101f280000060100170037001f003700280037009f
:101f38003600370002013700010137000001370081
:101f4800ff0037003400370040003700fc0037003e
:101f5800fb0037005a003700660037008200370060
:101f68008f003700a4003700b1003700f4003700b5
:101f7800f3003700c4003700d0003700d90037001d
:101f8800e50037000041eb006000b800640307007b
:101f980012c0b3006000b8006103070010c0b300ae
:101fa80000f0b700fa00370092808000a38080001c
:101fb800803e200001002000800f5100818f5900d1
:101fc800e200360020c0b30000f0b700f000370090
:101fd80020d0bf000080fb008000eb001efa070045
:101fe8000041eb004e03070020d0bf000080fb003b
:101ff8008000eb0018fa070012c0b300480307007e
:1020080030c0b30000f0b700e10037004080800026
:1020180000000100de0037000041eb000000200056
:10202800011b24003e03070012c0b3006000b80083
:102038003b0307001230ef001430ef000a70ef0086
:1020480090c0b30000f0b700d10037009280800044
:10205800a3808000007d200001002000800f510037
:10206800818f59000300360040c1b30000f0b7006b
:10207800c70037000ad0bf000004e00008003a009b
:10208800eafd07000000e000b200320010c0b30013
:102098000af0b7001230ef001430ef00bc00370030
:1020a80090808000a1808000e00f5000e08f5800f1
:1020b800aa00320020c0b30000f0b700b400370017
:1020c8000041eb006000b8001503070012c0b30020
:1020d80000002000011b2400110307001230ef004c
:1020e8001430ef000a70ef00d0c0b30000f0b70062
:1020f800a700370092808000a3808000007d200028
:1021080001002000800f5100818f59000300360024
:1021180040c1b30000f0b7009d0037000ad0bf00ef
:102128000004e00008003a00c0fd07000000e000dd
:102138008c00320010c0b3000af0b7001230ef0074
:102148001430ef009200370090808000a18080005a
:10215800e00f5000e08f58008400320020c0b30028
:1021680000f0b7008a0037000041eb0000002000b3
:10217800011a2400ea02070012c0b3000000200080
:10218800011a2c00e60207001230ef001430ef00ad
:102198000a70ef00f0c0b30000f0b7007c00370011
:1021a80092808000a38080001000200001002000a1
:1021b800800f5100818f5900050036009bfd0700f4
:1021c8000000e0000200320020c0b30000f0b700b9
:1021d80092808000a3808000007d20000100200004
:1021e800800f5100818f59006200360040c1b30052
:1021f80000f0b700660037000041eb000000200047
:10220800011a2c00c602070012c0b300000020000b
:10221800011a2400c20207001230ef001430ef0048
:102228000a70ef0010c1b30000f0b7005800370083
:1022380092808000a3808000100020000100200010
:10224800800f5100818f59000500360077fd070087
:102258000000e0000200320020c0b30000f0b70028
:1022680092808000a3808000007d20000100200073
:10227800800f5100818f59004000360040c1b300e3
:1022880000f0b700420037000041eb0000002000da
:10229800011a2c00a202070012c0b300000020009f
:1022a800011a2c009e0207001230ef001430ef00d4
:1022b80050c1b30000f0b7003500370092808000ad
:1022c800a3808000f000200001002000800f510052
:1022d800818f59002b00360060c1b30000f0b700b1
:1022e8002b0037000041eb0000002000011a2400f9
:1022f8008b02070012c0b30000002000011a2c0056
:10230800870207001230ef001430ef0070c1b300ed
:1023180000f0b7001e00370092808000a380800084
:10232800f000200001002000800f5100818f59002b
:102338001600360020c0b30000f0b70014003700c4
:102348000070ef00000000001100370000000000de
:102358000f003700000000000d00370000000000eb
:102368000b003700000000000900370000000000e3
:1023780007003700000000000500370000000000db
:1023880003003700000000000100370000000000d3
:102398000080fa00000006001600fa00889fbe00c0
:1023a8008a1f7800e2818000f3818000120798007c
:1023b8002307980002828000138280003207980069
:1023c80043079800c2818000d3818000520798009b
:1023d8006307980022828000338280007207980089
:1023e800030f98004282800053828000120f9800e9
:1023f800230f98000040eb00004f780018c0b3008e
:1024080002002000831b24007e0090008e089000ac
:10241800d1f807000000e000010035000044eb009f
:102428000804e000010032001e44a00018c0b300f8
:1024380002002000831c24003e009000ce00900083
:10244800c5f807000000e000010035000044eb007b
:102458000804e000010032001e34a00018c0b300d8
:1024680002002000c32024001e009000ae0090004f
:10247800b9f807000000e000010035000044eb0057
:102488000804e000010032001e24a00018c0b300b8
:1024980002002000831c24005e009000ee009000e3
:1024a800adf807000000e000010035000044eb0033
:1024b8000804e000010032001e14a00018c0b30098
:1024c80002002000831b24001e089000ae08900024
:1024d800a1f807000000e000010035000044eb000f
:1024e8000804e000010032001e04a00018c0b30078
:1024f80002002000831d24001e009000ae00900002
:1025080095f807000000e000010035000044eb00ea
:102518000804e00016003a0018c0b30002002000ca
:10252800031b24003e009000ce0090008af80700ac
:102538000000e000010035000044eb000804e00062
:102548000b003a0018c0b30002002000031b24004f
:102558005e009000ee0090007ff807000000e000a9
:10256800010035000044eb000804e0001a003200c6
:102578007e0190008e0990003e009000ce009000f1
:10258800d5f807000004be001e099000ae099000af
:102598005e009000ee009000cff807001ac0b3006c
:1025a8000001be000800be006bf807000000e00054
:1025b800010035000045eb000a04e000030032008a
:1025c80000c1b3000bf0b7005e003700e0c0b300f5
:1025d8000bf0b7005b0037001e80fb00cf80de00e9
:1025e800f201200003002000820f5000838f580062
:1025f8004a003e00000601001f0037002400370093
:102608002300370022003700240037003700370046
:1026180036003700350037001a0037003f00370012
:102628003b0037003d0037002d0037003b003700e6
:102638003a00370030003700120037003100370009
:102648003600370035003700250037002a003700ec
:1026580032003700310037000a0037002f003700fa
:102668002e0037002d0037001d0037002b003700e3
:10267800210037002000370020c0b3000bf0b7005e
:1026880030003700c0c0b3000bf0b7002d00370092
:1026980080c0b3000bf0b7002a00370018c0b300a1
:1026a8001e099000ae0990007e0090008e089000f0
:1026b8002bf807000000e00001003c000044eb009c
:1026c8000804e0000300320080c0b3000bf0b7003c
:1026d8001c003700c0c0b3000bf0b700190037006a
:1026e800c0c0b3000bf0b7001600370080c0b300bd
:1026f8000bf0b70013003700e0c0b3000bf0b700d1
:102708001000370020c0b3000bf0b7000d003700f1
:10271800e0c0b3000bf0b7000a0037001e80fb00d2
:10272800640060000000e00003003200e0c0b30075
:102738000bf0b7000300370020c0b3000bf0b70060
:1027480000000000b10021009140780000d0bf00d7
:1027580080cf5000090032000bd0bf008080fb0002
:1027680000d0bf000080fb000000e900808f50000f
:10277800020032000bd0bf0000f0b7004f05780010
:102788004f04be000080fa00000006000000fa00b6
:102798001160800080ff2f000080600010608800ba
:1027a80000962000206088001161800000c0200091
:1027b800010070001061880023cca80023eca80059
:1027c80030002000206188001162800000c02000d5
:1027d800010070001062880043cca80043eca800f8
:1027e800300020002062880001eca8000080fa0078
:1027f800000006000800fa00881f7800008fbe005d
:1028080022079800330798000200200003f82300ed
:102818002e009000be009000cff707000000e000f7
:1028280033003a0018c0b3006011b8001e007800e9
:102838009e009000c8f707000000e0000100350086
:102848000044eb000804e00015003200c08080005e
:10285800d1808000e5f7070000007800306188002b
:102868001e0078009e00900001f0a20002002000e7
:10287800031c2400dcf907000002be00c0808000b1
:10288800d18080000001be000400be0012f80700dd
:10289800d6f7070000007800706188004c00370008
:1028a80002002000031c24001e0078009e009000f7
:1028b800cdf907000002be00c0808000d1808000f2
:1028c8000001be000400be0003f80700c7f70700b8
:1028d8000000780030618800c0808000d1808000ce
:1028e800c2f70700000078007061880038003700e0
:1028f8006011b8002e009000be00900096f7070007
:102908000000e00032003a0018c0b3006011b800bf
:102918001e0078009e0090008ff707000000e0007e
:10292800010035000044eb000804e0001500320007
:10293800c0808000d1808000acf7070000007800dc
:10294800306288001e0078009e00900001f0a2000e
:1029580002002000031c2400a3f907000002be00a7
:10296800c0808000d18080000001be000400be004d
:10297800d9f707009df7070000007800706288000b
:102988001300370002002000031c24001e007800fa
:102998009e00900094f907000002be00c0808000ed
:1029a800d18080000001be000400be00caf7070005
:1029b8008ef707000000780030628800c080800031
:1029c800d180800089f707000000780070628800d5
:1029d8004f0478000080fa00000006000000fa00aa
:1029e800889fbe00648180007581800040818000de
:1029f8005181800018c0b3000001be000400be0071
:102a080055f707000000e000010035000044eb0026
:102a18000804e0000d0032004881800059818000e0
:102a28006481800075818000e0808000f1808000f2
:102a38000001be000400be00a7f707000801be00a1
:102a4800110207006081880071818800648180001c
:102a580075818000408180005181800018c0b300da
:102a68000001be000400be003df707000000e000c2
:102a780001003c000044eb000804e0000d003200b7
:102a880048818000598180006481800075818000c0
:102a9800e0808000f18080000001be000400be00dc
:102aa80084f707000801be00df0107006081880085
:102ab80071818800608180007181800018c0b30036
:102ac8006011b80026f707000000e00001003c0094
:102ad8000044eb000804e00014003200608180002c
:102ae8007181800002002000031c24003ef90700c9
:102af8000002be00c0808000d18080000001be00be
:102b08000400be0074f7070038f7070000007800db
:102b180030618800c0808000d180800033f70700d2
:102b2800000078007061880014003700c0808000c1
:102b3800d18080002df70700000078003061880000
:102b4800608180007181800001f0a20002002000f5
:102b5800031c240024f907000002be00c080800086
:102b6800d18080000001be000400be005af70700b3
:102b78001ef707000000780070618800a4818000bb
:102b8800b5818000808180009181800018c0b300e9
:102b98000001be000400be00eff607000000e000e0
:102ba800010035000044eb000804e0000d0032008d
:102bb8008881800099818000a4818000b58180008f
:102bc800e0808000f18080000001be000400be00ab
:102bd80041f707000801be00ab010700a08188008b
:102be800b1818800a4818000b58180008081800047
:102bf8009181800018c0b3000001be000400be002f
:102c0800d7f607000000e00001003c000044eb009c
:102c18000804e0000d00320088818000998180005e
:102c2800a4818000b5818000e0808000f180800070
:102c38000001be000400be001ef707000801be0028
:102c480079010700a0818800b1818800a0818000f7
:102c5800b181800018c0b3006011b800c0f6070049
:102c68000000e00001003d000044eb000804e00023
:102c780014003200a0818000b18180000200200091
:102c8800031c2400d8f807000002be00c0808000a2
:102c9800d18080000001be000400be000ef70700ce
:102ca800d2f607000000780030628800c0808000fb
:102cb800d1808000cdf6070000007800706288009f
:102cc80014003700c0808000d1808000c7f607005c
:102cd8000000780030628800a0818000b181800007
:102ce80001f0a20002002000031c2400bef8070027
:102cf8000002be00c0808000d18080000001be00bc
:102d08000400be00f4f60700b8f6070000007800db
:102d1800706288004f04be000080fa0000000600c0
:102d28000600fa00008fbe00424798004e4090000f
:102d3800e14f500005003a001e0178009e01900006
:102d48004281880053818800080037004e40900077
:102d58000004e00005003a001e0078009e00900084
:102d680001f0a20080818800918188000080fa002b
:102d7800000006000000fa0005e1a9000421a900ee
:102d88000068a9002068a80005e1a8000000240048
:102d9800c16124001b0007000080fa000000060043
:102da8000000fa0013e1a90011e1a9001061a800d0
:102db8001021a90081088000f0fc2f00008060002d
:102dc800800888000a21ef000621ef003039200032
:102dd8007008880000702800600888002142800080
:102de80080ff2f00008060000000a00020428800c3
:102df8000108a9002108a80011e1a8000080fa0034
:102e0800000006000400fa00881f7800008fbe004a
:102e180021088000f0fc2f00008060002008880056
:102e28001e0178009e019000001c2e0041c624005f
:102e38008ef7070018c0b30002f02f00f3772400c4
:102e480047f607000000e00001003c000044eb00ea
:102e58000804e0005400320021088000f0fc2f0034
:102e6800008060000040a000200888001e01780053
:102e78009e019000001c2e0041c624007bf707002d
:102e8800020020000310240078f7070018c0b300e0
:102e980002f02f00f377240031f607000000e0006d
:102ea80001003c000044eb000804e000320032005e
:102eb80021088000f0fc2f00008060000050a00076
:102ec800200888001e0178009e019000001c2e003a
:102ed80041c6240065f707000200200003282400eb
:102ee80062f7070018c0b30002f02f00f377240040
:102ef8001bf607000000e00001003c000044eb0066
:102f08000804e000100032002108800000032000bf
:102f180001007000200888001e0178009e019000c2
:102f2800001c2e0041c6240050f7070002002000b4
:102f3800033824004df707000bf60700000078005f
:102f480010088800200037001e0178009e019000bc
:102f5800001c2e0041c6240044f707000200200090
:102f68000328240041f70700fff507000000780058
:102f780010088800140037001e0178009e01900098
:102f8800001c2e0041c6240038f70700020020006c
:102f98000310240035f70700f3f507000000780058
:102fa80010088800080037001e0178009e01900074
:102fb800001c2e0041c624002cf70700eaf5070084
:102fc80000007800100888004f0478000080fa009c
:102fd800000006000000fa001fe1a9001e21a90058
:102fe8000368a9002368a8001fe1a80000002400c6
:102ff800c1592400020007000080fa000000060002
:103008000400fa00881f7800008fbe00f1088000d5
:10301800f0fc2f0000806000f00888001e01780096
:103028009e019000001c2e0041c624000ff70700e7
:1030380018c0b30002f02f00f3772400c8f507008a
:103048000000e00001003c000044eb000804e00040
:1030580054003200f1088000f0fc2f00008060006e
:103068000040a000f00888001e0178009e01900032
:10307800001c2e0041c62400fcf6070002002000b8
:1030880003102400f9f6070018c0b30002f02f005f
:10309800f3772400b2f507000000e00001003c00cf
:1030a8000044eb000804e00032003200f108800020
:1030b800f0fc2f00008060000050a000f00888009d
:1030c8001e0178009e019000001c2e0041c62400bd
:1030d800e6f607000200200003282400e3f60700b4
:1030e80018c0b30002f02f00f37724009cf5070006
:1030f8000000e00001003c000044eb000804e00090
:1031080010003200f1088000000320000100700068
:10311800f00888001e0178009e019000001c2e0017
:1031280041c62400d1f6070002002000033824001d
:10313800cef607008cf5070000007800d00888005c
:10314800200037001e0178009e019000001c2e0010
:1031580041c62400c5f60700020020000328240009
:10316800c2f6070080f5070000007800d008880044
:10317800140037001e0178009e019000001c2e00ec
:1031880041c62400b9f607000200200003102400fd
:10319800b6f6070074f5070000007800d00888002c
:1031a800080037001e0178009e019000001c2e00c8
:1031b80041c62400adf607006bf507000000780053
:1031c800d00888004f0478000080fa00000006004c
:1031d8000400fa00881f7800008fbe0018c0b300f2
:1031e8006011b8001e0078009e0090005cf5070092
:1031f8000000e00001003d000044eb000804e0008e
:10320800030032001e0078009e0090000300370083
:103218001e0078009e00900001f0a2004f04780084
:103228000080fa00000006000800fa00881f7800f5
:10323800008fbe00220798003307980018c0b3001b
:103248002e019000be0190001e0078009e009000a4
:1032580043f507000000e00001003c000044eb00db
:103268000804e000030032001e0078009e00900071
:10327800020037002e009000be0090004f04780036
:103288000080fa00000006000800fa00881f780095
:10329800008fbe00220798003307980018c0b300bb
:1032a8002e019000be0190001e0078009e00900044
:1032b80029f507000000e000010035000044eb009c
:1032c8000804e000030032001e0078009e00900011
:1032d800020037002e009000be0090004f047800d6
:1032e8000080fa00000006000c00fa00881f780031
:1032f800008fbe0022079800330798004407980003
:103308005507980018c0b3004e019000de019000e8
:103318001e0078009e00900011f507000000e000f4
:1033280001003c000044eb000804e0000400320007
:103338004e019000de019000028fbe000e003700a3
:1033480018c0b3002e019000be0190001e00780046
:103358009e00900000f507000000e0000100350025
:103368000044eb000804e000030032002e01900046
:10337800be019000028fbe001e0078009e009000e3
:103388004f0478000080fa00000006000400fa00ec
:10339800008fbe00b2fd2000930424001e007800b8
:1033a8009e00900031f607000200200043332400fd
:1033b8000df707000080fa00000006000400fa007c
:1033c800008fbe00b2fd2000930424001e00780088
:1033d8009e00900004f707000200200043332400f9
:1033e80022f607000080fa00000006000000fa003c
:1033f800413a800000fc2f00008060007001b3009b
:10340800403a8800313a800000e02f008080600058
:103418008005200001007000303a8800213a8000c1
:10342800f0f32f0000806000203a8800213a8000e5
:1034380000fe2f00008060000000a000203a8800f5
:103448001200200080072000a1092000337420000a
:10345800804978008149780082497800103a8000d4
:10346800000178000200a00060042000710520001f
:1034780023742000804978008149780082497800c7
:1034880000000000113a80000000270080806000e2
:1034980000002100808f5000faff3a005927a80049
:1034a800c13a800080ff2f00008060000000a0006b
:1034b800c03a8800d03a80007000b300d03a880043
:1034c800c13a8000f0f12f0080806000000c2000dd
:1034d80001007000c03a880059a7a80059e7a80061
:1034e80000000000c13a8000000024000080600055
:1034f8000000e000fbff320000000000113a8000ed
:1035080000022000008060000000e000fbff3200a5
:103518000080fa00000006000000fa0021e3a9007c
:103528002143a80001198000f0cf2f00008060001f
:10353800001988002043a90001198000000e20000e
:10354800010070000019880011198000f0ff2100a7
:1035580000806000101988002343a800111980001a
:10356800f0cf2f000080600010198800111980002a
:1035780030f82f00008060000040a000101988007b
:103588002203a9002223a90025e3a90080c0b300d3
:1035980024e3b70021198000f00f2e00008060009e
:1035a8000090a000201988003303a9001f0ea8006e
:1035b8001f2ea8001f4ea8001f6ea8001e0ea800f0
:1035c8003103a8003123a8003143a8003163a800c3
:1035d8003003a8004119800000fe2f000080600021
:1035e8004019880028e3a90001a8a90021a8a8007b
:1035f80021e3a8000080fa00000006000000fa009d
:103608002023a8000080fa00000006000000fa004d
:10361800c00421000080fa00000006000000fa0043
:1036280023d0bf000080fa00000006000000fa0066
:103638002370ef000080fa00000006000000fa0086
:103648000e2eef001e2eef003e2eef002e2eef0066
:103658004e2eef006e2eef0080cea90080aea9009e
:10366800808ea900816ea900714ea90091eea90073
:10367800000ea900012ea900014ea900706ea90034
:10368800814ea900702ea900704ea9000c000700f9
:10369800020007000080fa00000006000000fa009f
:1036a80021742000620420007305200082487800fd
:1036b8008348780042c7a8000080fa00000006008e
:1036c8000000fa0021742000620420007305200025
:1036d800824878008348780042c7a9000080fa0031
:0436e80000000600d8
:020000040000fa
:1036ec00001000000c000000800000002010000002
:1036fc000200000082000000230000000c100000fb
:10370c000c000000800000002610000026000000c5
:10371c00800000001810000008000000820000006b
:10372c000000480042000000f04100004c10000076
:10373c000a000000800000002210000002000000bf
:10374c008000000024100000020000008000000037
:04375c000000000069
:020000040000fa
:0200000401f009
:04000800cfffff0027
:020000040000fa
:0200000401f009
:04000c00f9ffff00f9
:020000040000fa
:0200000401f009
:040010005bffff0093
:020000040000fa
:0200000401f009
:040014007fffff006b
:020000040000fa
:0200000401f009
:04001800cfffff0017
:020000040000fa
:0200000401f009
:04001c00deffff0004
:020000040000fa
:0200000401f009
:04002000cfffff000f
:00000001FF
